{"contracts/GovernorAlpha.sol":{"GovernorAlpha":{"abi":[{"inputs":[{"internalType":"address","name":"timelock_","type":"address"},{"internalType":"address","name":"uni_","type":"address"},{"internalType":"address","name":"_l2Contract","type":"address"},{"internalType":"address","name":"_l1Bridge","type":"address"}],"payable":false,"stateMutability":"nonpayable","type":"constructor"},{"anonymous":false,"inputs":[{"indexed":false,"internalType":"uint256","name":"id","type":"uint256"}],"name":"ProposalCanceled","type":"event"},{"anonymous":false,"inputs":[{"indexed":false,"internalType":"uint256","name":"id","type":"uint256"},{"indexed":false,"internalType":"address","name":"proposer","type":"address"},{"indexed":false,"internalType":"address[]","name":"targets","type":"address[]"},{"indexed":false,"internalType":"uint256[]","name":"values","type":"uint256[]"},{"indexed":false,"internalType":"string[]","name":"signatures","type":"string[]"},{"indexed":false,"internalType":"bytes[]","name":"calldatas","type":"bytes[]"},{"indexed":false,"internalType":"uint256","name":"startBlock","type":"uint256"},{"indexed":false,"internalType":"uint256","name":"endBlock","type":"uint256"},{"indexed":false,"internalType":"string","name":"description","type":"string"}],"name":"ProposalCreated","type":"event"},{"anonymous":false,"inputs":[{"indexed":false,"internalType":"uint256","name":"id","type":"uint256"}],"name":"ProposalExecuted","type":"event"},{"anonymous":false,"inputs":[{"indexed":false,"internalType":"uint256","name":"id","type":"uint256"},{"indexed":false,"internalType":"uint256","name":"eta","type":"uint256"}],"name":"ProposalQueued","type":"event"},{"anonymous":false,"inputs":[{"indexed":false,"internalType":"address","name":"voter","type":"address"},{"indexed":false,"internalType":"uint256","name":"proposalId","type":"uint256"},{"indexed":false,"internalType":"bool","name":"support","type":"bool"},{"indexed":false,"internalType":"uint256","name":"votes","type":"uint256"}],"name":"VoteCast","type":"event"},{"constant":true,"inputs":[],"name":"BALLOT_TYPEHASH","outputs":[{"internalType":"bytes32","name":"","type":"bytes32"}],"payable":false,"stateMutability":"view","type":"function"},{"constant":true,"inputs":[],"name":"DOMAIN_TYPEHASH","outputs":[{"internalType":"bytes32","name":"","type":"bytes32"}],"payable":false,"stateMutability":"view","type":"function"},{"constant":false,"inputs":[{"internalType":"uint256","name":"proposalId","type":"uint256"}],"name":"cancel","outputs":[],"payable":false,"stateMutability":"nonpayable","type":"function"},{"constant":false,"inputs":[{"internalType":"address","name":"voter","type":"address"},{"internalType":"uint256","name":"proposalId","type":"uint256"},{"internalType":"bool","name":"support","type":"bool"}],"name":"castVote","outputs":[],"payable":false,"stateMutability":"nonpayable","type":"function"},{"constant":false,"inputs":[{"internalType":"uint256","name":"proposalId","type":"uint256"},{"internalType":"bool","name":"support","type":"bool"},{"internalType":"uint8","name":"v","type":"uint8"},{"internalType":"bytes32","name":"r","type":"bytes32"},{"internalType":"bytes32","name":"s","type":"bytes32"}],"name":"castVoteBySig","outputs":[],"payable":false,"stateMutability":"nonpayable","type":"function"},{"constant":false,"inputs":[{"internalType":"uint256","name":"proposalId","type":"uint256"}],"name":"execute","outputs":[],"payable":true,"stateMutability":"payable","type":"function"},{"constant":true,"inputs":[{"internalType":"uint256","name":"proposalId","type":"uint256"}],"name":"getActions","outputs":[{"internalType":"address[]","name":"targets","type":"address[]"},{"internalType":"uint256[]","name":"values","type":"uint256[]"},{"internalType":"string[]","name":"signatures","type":"string[]"},{"internalType":"bytes[]","name":"calldatas","type":"bytes[]"}],"payable":false,"stateMutability":"view","type":"function"},{"constant":true,"inputs":[{"internalType":"uint256","name":"proposalId","type":"uint256"},{"internalType":"address","name":"voter","type":"address"}],"name":"getReceipt","outputs":[{"components":[{"internalType":"bool","name":"hasVoted","type":"bool"},{"internalType":"bool","name":"support","type":"bool"},{"internalType":"uint96","name":"votes","type":"uint96"}],"internalType":"struct GovernorAlpha.Receipt","name":"","type":"tuple"}],"payable":false,"stateMutability":"view","type":"function"},{"constant":true,"inputs":[{"internalType":"address","name":"","type":"address"}],"name":"latestProposalIds","outputs":[{"internalType":"uint256","name":"","type":"uint256"}],"payable":false,"stateMutability":"view","type":"function"},{"constant":true,"inputs":[],"name":"name","outputs":[{"internalType":"string","name":"","type":"string"}],"payable":false,"stateMutability":"view","type":"function"},{"constant":false,"inputs":[{"internalType":"address","name":"originAddress","type":"address"},{"internalType":"uint32","name":"originNetwork","type":"uint32"},{"internalType":"bytes","name":"data","type":"bytes"}],"name":"onMessageReceived","outputs":[],"payable":true,"stateMutability":"payable","type":"function"},{"constant":true,"inputs":[],"name":"proposalCount","outputs":[{"internalType":"uint256","name":"","type":"uint256"}],"payable":false,"stateMutability":"view","type":"function"},{"constant":true,"inputs":[],"name":"proposalMaxOperations","outputs":[{"internalType":"uint256","name":"","type":"uint256"}],"payable":false,"stateMutability":"pure","type":"function"},{"constant":true,"inputs":[],"name":"proposalThreshold","outputs":[{"internalType":"uint256","name":"","type":"uint256"}],"payable":false,"stateMutability":"pure","type":"function"},{"constant":true,"inputs":[{"internalType":"uint256","name":"","type":"uint256"}],"name":"proposals","outputs":[{"internalType":"uint256","name":"id","type":"uint256"},{"internalType":"address","name":"proposer","type":"address"},{"internalType":"uint256","name":"eta","type":"uint256"},{"internalType":"uint256","name":"startBlock","type":"uint256"},{"internalType":"uint256","name":"endBlock","type":"uint256"},{"internalType":"uint256","name":"forVotes","type":"uint256"},{"internalType":"uint256","name":"againstVotes","type":"uint256"},{"internalType":"bool","name":"canceled","type":"bool"},{"internalType":"bool","name":"executed","type":"bool"}],"payable":false,"stateMutability":"view","type":"function"},{"constant":false,"inputs":[{"internalType":"address[]","name":"targets","type":"address[]"},{"internalType":"uint256[]","name":"values","type":"uint256[]"},{"internalType":"string[]","name":"signatures","type":"string[]"},{"internalType":"bytes[]","name":"calldatas","type":"bytes[]"},{"internalType":"string","name":"description","type":"string"}],"name":"propose","outputs":[{"internalType":"uint256","name":"","type":"uint256"}],"payable":false,"stateMutability":"nonpayable","type":"function"},{"constant":false,"inputs":[{"internalType":"uint256","name":"proposalId","type":"uint256"}],"name":"queue","outputs":[],"payable":false,"stateMutability":"nonpayable","type":"function"},{"constant":true,"inputs":[],"name":"quorumVotes","outputs":[{"internalType":"uint256","name":"","type":"uint256"}],"payable":false,"stateMutability":"pure","type":"function"},{"constant":true,"inputs":[{"internalType":"uint256","name":"proposalId","type":"uint256"}],"name":"state","outputs":[{"internalType":"enum GovernorAlpha.ProposalState","name":"","type":"uint8"}],"payable":false,"stateMutability":"view","type":"function"},{"constant":true,"inputs":[],"name":"timelock","outputs":[{"internalType":"contract TimelockInterface","name":"","type":"address"}],"payable":false,"stateMutability":"view","type":"function"},{"constant":true,"inputs":[],"name":"uni","outputs":[{"internalType":"contract UniInterface","name":"","type":"address"}],"payable":false,"stateMutability":"view","type":"function"},{"constant":true,"inputs":[],"name":"votingDelay","outputs":[{"internalType":"uint256","name":"","type":"uint256"}],"payable":false,"stateMutability":"pure","type":"function"},{"constant":true,"inputs":[],"name":"votingPeriod","outputs":[{"internalType":"uint256","name":"","type":"uint256"}],"payable":false,"stateMutability":"pure","type":"function"}],"devdoc":{"methods":{}},"evm":{"bytecode":{"linkReferences":{},"object":"60806040523480156200001157600080fd5b5060405162003ce538038062003ce583398101604081905262000034916200009b565b600080546001600160a01b039586166001600160a01b031991821617909155600180549486169482169490941790935560058054928516928416929092179091556006805491909316911617905562000131565b8051620000958162000117565b92915050565b60008060008060808587031215620000b257600080fd5b6000620000c0878762000088565b9450506020620000d38782880162000088565b9350506040620000e68782880162000088565b9250506060620000f98782880162000088565b91505092959194509250565b60006001600160a01b03821662000095565b620001228162000105565b81146200012e57600080fd5b50565b613ba480620001416000396000f3fe6080604052600436106101805760003560e01c806340e58ee5116100d6578063da95691a1161007f578063e23a9a5211610059578063e23a9a52146103ee578063edc9af951461041b578063fe0d94c11461043057610180565b8063da95691a14610399578063ddf0b009146103b9578063deaaa7cc146103d957610180565b8063b58131b0116100b0578063b58131b01461034d578063d33219b414610362578063da35c6641461038457610180565b806340e58ee5146102f85780634634c61f146103185780637bdbe4d01461033857610180565b80631806b5f211610138578063328dd98211610112578063328dd982146102865780633932abb1146102b65780633e4f49e6146102cb57610180565b80631806b5f21461024957806320606b701461025c57806324bc1a641461027157610180565b806306fdde031161016957806306fdde03146101e557806312d320c51461020757806317977c611461022957610180565b8063013cf08b1461018557806302a251a3146101c3575b600080fd5b34801561019157600080fd5b506101a56101a036600461285c565b610443565b6040516101ba999897969594939291906138fa565b60405180910390f35b3480156101cf57600080fd5b506101d86104a9565b6040516101ba9190613657565b3480156101f157600080fd5b506101fa6104b0565b6040516101ba9190613713565b34801561021357600080fd5b5061022761022236600461264a565b6104e9565b005b34801561023557600080fd5b506101d8610244366004612624565b610523565b610227610257366004612697565b610535565b34801561026857600080fd5b506101d8610679565b34801561027d57600080fd5b506101d8610690565b34801561029257600080fd5b506102a66102a136600461285c565b61069f565b6040516101ba949392919061360a565b3480156102c257600080fd5b506101d8610977565b3480156102d757600080fd5b506102eb6102e636600461285c565b61097c565b6040516101ba9190613705565b34801561030457600080fd5b5061022761031336600461285c565b610b3e565b34801561032457600080fd5b506102276103333660046128b4565b610e10565b34801561034457600080fd5b506101d8610ff2565b34801561035957600080fd5b506101d8610ff7565b34801561036e57600080fd5b50610377611006565b6040516101ba91906136f7565b34801561039057600080fd5b506101d8611022565b3480156103a557600080fd5b506101d86103b43660046126ff565b611028565b3480156103c557600080fd5b506102276103d436600461285c565b611539565b3480156103e557600080fd5b506101d8611830565b3480156103fa57600080fd5b5061040e61040936600461287a565b61183c565b6040516101ba9190613844565b34801561042757600080fd5b506103776118bd565b61022761043e36600461285c565b6118d9565b6003602052600090815260409020805460018201546002830154600784015460088501546009860154600a870154600b90970154959673ffffffffffffffffffffffffffffffffffffffff90951695939492939192909160ff8082169161010090041689565b619d805b90565b6040518060400160405280601681526020017f556e697377617020476f7665726e6f7220416c7068610000000000000000000081525081565b60055460075473ffffffffffffffffffffffffffffffffffffffff90811691161461051357600080fd5b61051e838383611b0d565b505050565b60046020526000908152604090205481565b60055473ffffffffffffffffffffffffffffffffffffffff85811691161461055c57600080fd5b8263ffffffff1660011461056f57600080fd5b600780547fffffffffffffffffffffffff00000000000000000000000000000000000000001673ffffffffffffffffffffffffffffffffffffffff861617905560405160009030906105c490859085906134bd565b6000604051808303816000865af19150503d8060008114610601576040519150601f19603f3d011682016040523d82523d6000602084013e610606565b606091505b505090508061064a576040517f08c379a0000000000000000000000000000000000000000000000000000000008152600401610641906137f4565b60405180910390fd5b5050600780547fffffffffffffffffffffffff0000000000000000000000000000000000000000169055505050565b604051610685906134fb565b604051809103902081565b6a211654585005212800000090565b6060806060806000600360008781526020019081526020016000209050806003018160040182600501836006018380548060200260200160405190810160405280929190818152602001828054801561072e57602002820191906000526020600020905b815473ffffffffffffffffffffffffffffffffffffffff168152600190910190602001808311610703575b505050505093508280548060200260200160405190810160405280929190818152602001828054801561078057602002820191906000526020600020905b81548152602001906001019080831161076c575b5050505050925081805480602002602001604051908101604052809291908181526020016000905b828210156108715760008481526020908190208301805460408051601f60027fffffffffffffffffffffffffffffffffffffffffffffffffffffffffffffffff61010060018716150201909416939093049283018590048502810185019091528181529283018282801561085d5780601f106108325761010080835404028352916020019161085d565b820191906000526020600020905b81548152906001019060200180831161084057829003601f168201915b5050505050815260200190600101906107a8565b50505050915080805480602002602001604051908101604052809291908181526020016000905b828210156109615760008481526020908190208301805460408051601f60027fffffffffffffffffffffffffffffffffffffffffffffffffffffffffffffffff61010060018716150201909416939093049283018590048502810185019091528181529283018282801561094d5780601f106109225761010080835404028352916020019161094d565b820191906000526020600020905b81548152906001019060200180831161093057829003601f168201915b505050505081526020019060010190610898565b5050505090509450945094509450509193509193565b600190565b600081600254101580156109905750600082115b6109c6576040517f08c379a000000000000000000000000000000000000000000000000000000000815260040161064190613744565b6000828152600360205260409020600b81015460ff16156109eb576002915050610b39565b80600701544311610a00576000915050610b39565b80600801544311610a15576001915050610b39565b80600a01548160090154111580610a365750610a2f610690565b8160090154105b15610a45576003915050610b39565b6002810154610a58576004915050610b39565b600b810154610100900460ff1615610a74576007915050610b39565b6002810154600054604080517fc1a287e20000000000000000000000000000000000000000000000000000000081529051610b23939273ffffffffffffffffffffffffffffffffffffffff169163c1a287e2916004808301926020929190829003018186803b158015610ae657600080fd5b505afa158015610afa573d6000803e3d6000fd5b505050506040513d601f19601f82011682018060405250610b1e9190810190612809565b611d98565b4210610b33576006915050610b39565b60059150505b919050565b6000610b498261097c565b90506007816007811115610b5957fe5b1415610b91576040517f08c379a000000000000000000000000000000000000000000000000000000000815260040161064190613814565b6000828152600360205260409020610ba7610ff7565b600180548382015473ffffffffffffffffffffffffffffffffffffffff9182169263782d6fe19290911690610bdd904390611dde565b6040518363ffffffff1660e01b8152600401610bfa92919061352c565b60206040518083038186803b158015610c1257600080fd5b505afa158015610c26573d6000803e3d6000fd5b505050506040513d601f19601f82011682018060405250610c4a919081019061291c565b6bffffffffffffffffffffffff1610610c8f576040517f08c379a0000000000000000000000000000000000000000000000000000000008152600401610641906137a4565b600b810180547fffffffffffffffffffffffffffffffffffffffffffffffffffffffffffffff0016600117905560005b6003820154811015610dd35760005460038301805473ffffffffffffffffffffffffffffffffffffffff9092169163591fcdfe919084908110610cfe57fe5b60009182526020909120015460048501805473ffffffffffffffffffffffffffffffffffffffff9092169185908110610d3357fe5b9060005260206000200154856005018581548110610d4d57fe5b90600052602060002001866006018681548110610d6657fe5b9060005260206000200187600201546040518663ffffffff1660e01b8152600401610d959594939291906135c9565b600060405180830381600087803b158015610daf57600080fd5b505af1158015610dc3573d6000803e3d6000fd5b505060019092019150610cbf9050565b507f789cf55be980739dad1d0699b93b58e806b51c9d96619bfa8fe0a28abaa7b30c83604051610e039190613657565b60405180910390a1505050565b6000604051610e1e906134fb565b60408051918290038220828201909152601682527f556e697377617020476f7665726e6f7220416c706861000000000000000000006020909201919091527fa5e0cfcfbed4e8af9bbb6c62a3dcbd52dedb58a723ee69f4d714b41681f2c447610e85611e20565b30604051602001610e999493929190613665565b6040516020818303038152906040528051906020012090506000604051610ebf90613506565b604051908190038120610ed8918990899060200161369a565b60405160208183030381529060405280519060200120905060008282604051602001610f059291906134ca565b604051602081830303815290604052805190602001209050600060018288888860405160008152602001604052604051610f4294939291906136c2565b6020604051602081039080840390855afa158015610f64573d6000803e3d6000fd5b50506040517fffffffffffffffffffffffffffffffffffffffffffffffffffffffffffffffe0015191505073ffffffffffffffffffffffffffffffffffffffff8116610fdc576040517f08c379a0000000000000000000000000000000000000000000000000000000008152600401610641906137e4565b610fe7818a8a611b0d565b505050505050505050565b600a90565b6a084595161401484a00000090565b60005473ffffffffffffffffffffffffffffffffffffffff1681565b60025481565b6000611032610ff7565b6001805473ffffffffffffffffffffffffffffffffffffffff169063782d6fe1903390611060904390611dde565b6040518363ffffffff1660e01b815260040161107d929190613511565b60206040518083038186803b15801561109557600080fd5b505afa1580156110a9573d6000803e3d6000fd5b505050506040513d601f19601f820116820180604052506110cd919081019061291c565b6bffffffffffffffffffffffff1611611112576040517f08c379a0000000000000000000000000000000000000000000000000000000008152600401610641906137d4565b84518651148015611124575083518651145b8015611131575082518651145b611167576040517f08c379a000000000000000000000000000000000000000000000000000000000815260040161064190613794565b855161119f576040517f08c379a0000000000000000000000000000000000000000000000000000000008152600401610641906137c4565b6111a7610ff2565b865111156111e1576040517f08c379a000000000000000000000000000000000000000000000000000000000815260040161064190613774565b3360009081526004602052604090205480156112925760006112028261097c565b9050600181600781111561121257fe5b141561124a576040517f08c379a000000000000000000000000000000000000000000000000000000000815260040161064190613804565b600081600781111561125857fe5b1415611290576040517f08c379a000000000000000000000000000000000000000000000000000000000815260040161064190613764565b505b60006112a043610b1e610977565b905060006112b082610b1e6104a9565b60028054600101905590506112c3611fd0565b604051806101a0016040528060025481526020013373ffffffffffffffffffffffffffffffffffffffff168152602001600081526020018b81526020018a815260200189815260200188815260200184815260200183815260200160008152602001600081526020016000151581526020016000151581525090508060036000836000015181526020019081526020016000206000820151816000015560208201518160010160006101000a81548173ffffffffffffffffffffffffffffffffffffffff021916908373ffffffffffffffffffffffffffffffffffffffff1602179055506040820151816002015560608201518160030190805190602001906113cd929190612052565b50608082015180516113e99160048401916020909101906120dc565b5060a08201518051611405916005840191602090910190612123565b5060c0820151805161142191600684019160209091019061217c565b5060e082015181600701556101008201518160080155610120820151816009015561014082015181600a015561016082015181600b0160006101000a81548160ff02191690831515021790555061018082015181600b0160016101000a81548160ff021916908315150217905550905050806000015160046000836020015173ffffffffffffffffffffffffffffffffffffffff1673ffffffffffffffffffffffffffffffffffffffff168152602001908152602001600020819055507f7d84a6263ae0d98d3329bd7b46bb4e8d6f98cd35a7adb45c274c8b7fd5ebd5e08160000151338c8c8c8c89898e60405161152199989796959493929190613852565b60405180910390a15193505050505b95945050505050565b60046115448261097c565b600781111561154f57fe5b14611586576040517f08c379a000000000000000000000000000000000000000000000000000000000815260040161064190613724565b6000818152600360209081526040808320835482517f6a42b8f8000000000000000000000000000000000000000000000000000000008152925191949361160593429373ffffffffffffffffffffffffffffffffffffffff90931692636a42b8f892600480840193919291829003018186803b158015610ae657600080fd5b905060005b60038301548110156117f6576117ee83600301828154811061162857fe5b60009182526020909120015460048501805473ffffffffffffffffffffffffffffffffffffffff909216918490811061165d57fe5b906000526020600020015485600501848154811061167757fe5b600091825260209182902001805460408051601f60027fffffffffffffffffffffffffffffffffffffffffffffffffffffffffffffffff6101006001871615020190941693909304928301859004850281018501909152818152928301828280156117235780601f106116f857610100808354040283529160200191611723565b820191906000526020600020905b81548152906001019060200180831161170657829003601f168201915b505050505086600601858154811061173757fe5b600091825260209182902001805460408051601f60027fffffffffffffffffffffffffffffffffffffffffffffffffffffffffffffffff6101006001871615020190941693909304928301859004850281018501909152818152928301828280156117e35780601f106117b8576101008083540402835291602001916117e3565b820191906000526020600020905b8154815290600101906020018083116117c657829003601f168201915b505050505086611e24565b60010161160a565b50600282018190556040517f9a2e42fd6722813d69113e7d0079d3d940171428df7373df9c7f7617cfda289290610e039085908490613980565b60405161068590613506565b6118446121d5565b50600082815260036020908152604080832073ffffffffffffffffffffffffffffffffffffffff85168452600c018252918290208251606081018452905460ff80821615158352610100820416151592820192909252620100009091046bffffffffffffffffffffffff16918101919091525b92915050565b60015473ffffffffffffffffffffffffffffffffffffffff1681565b60056118e48261097c565b60078111156118ef57fe5b14611926576040517f08c379a000000000000000000000000000000000000000000000000000000000815260040161064190613734565b6000818152600360205260408120600b810180547fffffffffffffffffffffffffffffffffffffffffffffffffffffffffffff00ff16610100179055905b6003820154811015611ad15760005460048301805473ffffffffffffffffffffffffffffffffffffffff90921691630825f38f9190849081106119a357fe5b90600052602060002001548460030184815481106119bd57fe5b60009182526020909120015460048601805473ffffffffffffffffffffffffffffffffffffffff90921691869081106119f257fe5b9060005260206000200154866005018681548110611a0c57fe5b90600052602060002001876006018781548110611a2557fe5b9060005260206000200188600201546040518763ffffffff1660e01b8152600401611a549594939291906135c9565b6000604051808303818588803b158015611a6d57600080fd5b505af1158015611a81573d6000803e3d6000fd5b50505050506040513d6000823e601f3d9081017fffffffffffffffffffffffffffffffffffffffffffffffffffffffffffffffe0168201604052611ac89190810190612827565b50600101611964565b507f712ae1383f79ac853f8d882153778e0260ef8f03b504e2866e0593e04d2b291f82604051611b019190613657565b60405180910390a15050565b6001611b188361097c565b6007811115611b2357fe5b14611b5a576040517f08c379a000000000000000000000000000000000000000000000000000000000815260040161064190613824565b600082815260036020908152604080832073ffffffffffffffffffffffffffffffffffffffff87168452600c8101909252909120805460ff1615611bca576040517f08c379a000000000000000000000000000000000000000000000000000000000815260040161064190613754565b60015460078301546040517f782d6fe100000000000000000000000000000000000000000000000000000000815260009273ffffffffffffffffffffffffffffffffffffffff169163782d6fe191611c26918a9160040161352c565b60206040518083038186803b158015611c3e57600080fd5b505afa158015611c52573d6000803e3d6000fd5b505050506040513d601f19601f82011682018060405250611c76919081019061291c565b90508315611ca457611c9a8360090154826bffffffffffffffffffffffff16611d98565b6009840155611cc6565b611cc083600a0154826bffffffffffffffffffffffff16611d98565b600a8401555b815460017fffffffffffffffffffffffffffffffffffffffffffffffffffffffffffffff00909116177fffffffffffffffffffffffffffffffffffffffffffffffffffffffffffff00ff1661010085151502177fffffffffffffffffffffffffffffffffffff000000000000000000000000ffff16620100006bffffffffffffffffffffffff8316021782556040517f877856338e13f63d0c36822ff0ef736b80934cd90574a3a5bc9262c39d217c4690611d8890889088908890869061353a565b60405180910390a1505050505050565b600082820183811015611dd7576040517f08c379a000000000000000000000000000000000000000000000000000000000815260040161064190613784565b9392505050565b600082821115611e1a576040517f08c379a000000000000000000000000000000000000000000000000000000000815260040161064190613834565b50900390565b4690565b60005460405173ffffffffffffffffffffffffffffffffffffffff9091169063f2b0653790611e5f908890889088908890889060200161356f565b604051602081830303815290604052805190602001206040518263ffffffff1660e01b8152600401611e919190613657565b60206040518083038186803b158015611ea957600080fd5b505afa158015611ebd573d6000803e3d6000fd5b505050506040513d601f19601f82011682018060405250611ee191908101906127eb565b15611f18576040517f08c379a0000000000000000000000000000000000000000000000000000000008152600401610641906137b4565b6000546040517f3a66f90100000000000000000000000000000000000000000000000000000000815273ffffffffffffffffffffffffffffffffffffffff90911690633a66f90190611f76908890889088908890889060040161356f565b602060405180830381600087803b158015611f9057600080fd5b505af1158015611fa4573d6000803e3d6000fd5b505050506040513d601f19601f82011682018060405250611fc89190810190612809565b505050505050565b604051806101a0016040528060008152602001600073ffffffffffffffffffffffffffffffffffffffff1681526020016000815260200160608152602001606081526020016060815260200160608152602001600081526020016000815260200160008152602001600081526020016000151581526020016000151581525090565b8280548282559060005260206000209081019282156120cc579160200282015b828111156120cc57825182547fffffffffffffffffffffffff00000000000000000000000000000000000000001673ffffffffffffffffffffffffffffffffffffffff909116178255602090920191600190910190612072565b506120d89291506121f5565b5090565b828054828255906000526020600020908101928215612117579160200282015b828111156121175782518255916020019190600101906120fc565b506120d8929150612231565b828054828255906000526020600020908101928215612170579160200282015b82811115612170578251805161216091849160209091019061224b565b5091602001919060010190612143565b506120d89291506122b8565b8280548282559060005260206000209081019282156121c9579160200282015b828111156121c957825180516121b991849160209091019061224b565b509160200191906001019061219c565b506120d89291506122db565b604080516060810182526000808252602082018190529181019190915290565b6104ad91905b808211156120d85780547fffffffffffffffffffffffff00000000000000000000000000000000000000001681556001016121fb565b6104ad91905b808211156120d85760008155600101612237565b828054600181600116156101000203166002900490600052602060002090601f016020900481019282601f1061228c57805160ff1916838001178555612117565b8280016001018555821561211757918201828111156121175782518255916020019190600101906120fc565b6104ad91905b808211156120d85760006122d282826122fe565b506001016122be565b6104ad91905b808211156120d85760006122f582826122fe565b506001016122e1565b50805460018160011615610100020316600290046000825580601f106123245750612342565b601f0160209004906000526020600020908101906123429190612231565b50565b80356118b781613b20565b600082601f83011261236157600080fd5b813561237461236f826139b5565b61398e565b9150818183526020840193506020810190508385602084028201111561239957600080fd5b60005b838110156123c557816123af8882612345565b845250602092830192919091019060010161239c565b5050505092915050565b600082601f8301126123e057600080fd5b81356123ee61236f826139b5565b81815260209384019390925082018360005b838110156123c55781358601612416888261256e565b8452506020928301929190910190600101612400565b600082601f83011261243d57600080fd5b813561244b61236f826139b5565b81815260209384019390925082018360005b838110156123c55781358601612473888261256e565b845250602092830192919091019060010161245d565b600082601f83011261249a57600080fd5b81356124a861236f826139b5565b915081818352602084019350602081019050838560208402820111156124cd57600080fd5b60005b838110156123c557816124e3888261250f565b84525060209283019291909101906001016124d0565b80356118b781613b34565b80516118b781613b34565b80356118b781613b3d565b80516118b781613b3d565b60008083601f84011261253757600080fd5b50813567ffffffffffffffff81111561254f57600080fd5b60208301915083600182028301111561256757600080fd5b9250929050565b600082601f83011261257f57600080fd5b813561258d61236f826139d6565b915080825260208301602083018583830111156125a957600080fd5b6125b4838284613ab6565b50505092915050565b600082601f8301126125ce57600080fd5b81516125dc61236f826139d6565b915080825260208301602083018583830111156125f857600080fd5b6125b4838284613ac2565b80356118b781613b46565b80356118b781613b4f565b80516118b781613b58565b60006020828403121561263657600080fd5b60006126428484612345565b949350505050565b60008060006060848603121561265f57600080fd5b600061266b8686612345565b935050602061267c8682870161250f565b925050604061268d868287016124f9565b9150509250925092565b600080600080606085870312156126ad57600080fd5b60006126b98787612345565b94505060206126ca87828801612603565b935050604085013567ffffffffffffffff8111156126e757600080fd5b6126f387828801612525565b95989497509550505050565b600080600080600060a0868803121561271757600080fd5b853567ffffffffffffffff81111561272e57600080fd5b61273a88828901612350565b955050602086013567ffffffffffffffff81111561275757600080fd5b61276388828901612489565b945050604086013567ffffffffffffffff81111561278057600080fd5b61278c8882890161242c565b935050606086013567ffffffffffffffff8111156127a957600080fd5b6127b5888289016123cf565b925050608086013567ffffffffffffffff8111156127d257600080fd5b6127de8882890161256e565b9150509295509295909350565b6000602082840312156127fd57600080fd5b60006126428484612504565b60006020828403121561281b57600080fd5b6000612642848461251a565b60006020828403121561283957600080fd5b815167ffffffffffffffff81111561285057600080fd5b612642848285016125bd565b60006020828403121561286e57600080fd5b6000612642848461250f565b6000806040838503121561288d57600080fd5b6000612899858561250f565b92505060206128aa85828601612345565b9150509250929050565b600080600080600060a086880312156128cc57600080fd5b60006128d8888861250f565b95505060206128e9888289016124f9565b94505060406128fa8882890161260e565b935050606061290b8882890161250f565b92505060806127de8882890161250f565b60006020828403121561292e57600080fd5b60006126428484612619565b60006129468383612975565b505060200190565b6000611dd78383612b36565b60006129468383612afd565b61296f81613a8e565b82525050565b61296f81613a3b565b600061298982613a2e565b6129938185613a32565b935061299e83613a1c565b8060005b838110156129cc5781516129b6888261293a565b97506129c183613a1c565b9250506001016129a2565b509495945050505050565b60006129e282613a2e565b6129ec8185613a32565b9350836020820285016129fe85613a1c565b8060005b85811015612a385784840389528151612a1b858261294e565b9450612a2683613a1c565b60209a909a0199925050600101612a02565b5091979650505050505050565b6000612a5082613a2e565b612a5a8185613a32565b935083602082028501612a6c85613a1c565b8060005b85811015612a385784840389528151612a89858261294e565b9450612a9483613a1c565b60209a909a0199925050600101612a70565b6000612ab182613a2e565b612abb8185613a32565b9350612ac683613a1c565b8060005b838110156129cc578151612ade888261295a565b9750612ae983613a1c565b925050600101612aca565b61296f81613a46565b61296f816104ad565b61296f612b12826104ad565b6104ad565b6000612b238385610b39565b9350612b30838584613ab6565b50500190565b6000612b4182613a2e565b612b4b8185613a32565b9350612b5b818560208601613ac2565b612b6481613aee565b9093019392505050565b600081546001811660008114612b8b5760018114612bcf57612c0e565b607f6002830416612b9c8187613a32565b7fffffffffffffffffffffffffffffffffffffffffffffffffffffffffffffff0084168152955050602085019250612c0e565b60028204612bdd8187613a32565b9550612be885613a22565b60005b82811015612c0757815488820152600190910190602001612beb565b8701945050505b505092915050565b61296f81613a95565b61296f81613aa0565b6000612c35604483613a32565b7f476f7665726e6f72416c7068613a3a71756575653a2070726f706f73616c206381527f616e206f6e6c792062652071756575656420696620697420697320737563636560208201527f6564656400000000000000000000000000000000000000000000000000000000604082015260600192915050565b6000612cba604583613a32565b7f476f7665726e6f72416c7068613a3a657865637574653a2070726f706f73616c81527f2063616e206f6e6c79206265206578656375746564206966206974206973207160208201527f7565756564000000000000000000000000000000000000000000000000000000604082015260600192915050565b6000612d3f600283610b39565b7f1901000000000000000000000000000000000000000000000000000000000000815260020192915050565b6000612d78602983613a32565b7f476f7665726e6f72416c7068613a3a73746174653a20696e76616c696420707281527f6f706f73616c2069640000000000000000000000000000000000000000000000602082015260400192915050565b6000612dd7602d83613a32565b7f476f7665726e6f72416c7068613a3a5f63617374566f74653a20766f7465722081527f616c726561647920766f74656400000000000000000000000000000000000000602082015260400192915050565b6000612e36605983613a32565b7f476f7665726e6f72416c7068613a3a70726f706f73653a206f6e65206c69766581527f2070726f706f73616c207065722070726f706f7365722c20666f756e6420616e60208201527f20616c72656164792070656e64696e672070726f706f73616c00000000000000604082015260600192915050565b6000612ebb602883613a32565b7f476f7665726e6f72416c7068613a3a70726f706f73653a20746f6f206d616e7981527f20616374696f6e73000000000000000000000000000000000000000000000000602082015260400192915050565b6000612f1a601183613a32565b7f6164646974696f6e206f766572666c6f77000000000000000000000000000000815260200192915050565b6000612f53604383610b39565b7f454950373132446f6d61696e28737472696e67206e616d652c75696e7432353681527f20636861696e49642c6164647265737320766572696679696e67436f6e74726160208201527f6374290000000000000000000000000000000000000000000000000000000000604082015260430192915050565b6000612fd8602783610b39565b7f42616c6c6f742875696e743235362070726f706f73616c49642c626f6f6c207381527f7570706f72742900000000000000000000000000000000000000000000000000602082015260270192915050565b6000613037604483613a32565b7f476f7665726e6f72416c7068613a3a70726f706f73653a2070726f706f73616c81527f2066756e6374696f6e20696e666f726d6174696f6e206172697479206d69736d60208201527f6174636800000000000000000000000000000000000000000000000000000000604082015260600192915050565b60006130bc602f83613a32565b7f476f7665726e6f72416c7068613a3a63616e63656c3a2070726f706f7365722081527f61626f7665207468726573686f6c640000000000000000000000000000000000602082015260400192915050565b600061311b604483613a32565b7f476f7665726e6f72416c7068613a3a5f71756575654f725265766572743a207081527f726f706f73616c20616374696f6e20616c72656164792071756575656420617460208201527f2065746100000000000000000000000000000000000000000000000000000000604082015260600192915050565b60006131a0602c83613a32565b7f476f7665726e6f72416c7068613a3a70726f706f73653a206d7573742070726f81527f7669646520616374696f6e730000000000000000000000000000000000000000602082015260400192915050565b60006131ff603f83613a32565b7f476f7665726e6f72416c7068613a3a70726f706f73653a2070726f706f73657281527f20766f7465732062656c6f772070726f706f73616c207468726573686f6c6400602082015260400192915050565b600061325e602f83613a32565b7f476f7665726e6f72416c7068613a3a63617374566f746542795369673a20696e81527f76616c6964207369676e61747572650000000000000000000000000000000000602082015260400192915050565b60006132bd601983613a32565b7f6d6574616461746120657865637574696f6e206661696c656400000000000000815260200192915050565b60006132f6605883613a32565b7f476f7665726e6f72416c7068613a3a70726f706f73653a206f6e65206c69766581527f2070726f706f73616c207065722070726f706f7365722c20666f756e6420616e60208201527f20616c7265616479206163746976652070726f706f73616c0000000000000000604082015260600192915050565b600061337b603683613a32565b7f476f7665726e6f72416c7068613a3a63616e63656c3a2063616e6e6f7420636181527f6e63656c2065786563757465642070726f706f73616c00000000000000000000602082015260400192915050565b60006133da602a83613a32565b7f476f7665726e6f72416c7068613a3a5f63617374566f74653a20766f74696e6781527f20697320636c6f73656400000000000000000000000000000000000000000000602082015260400192915050565b6000613439601583613a32565b7f7375627472616374696f6e20756e646572666c6f770000000000000000000000815260200192915050565b805160608301906134768482612af4565b5060208201516134896020850182612af4565b50604082015161349c60408501826134b4565b50505050565b61296f81613a77565b61296f81613aab565b61296f81613a7d565b6000612642828486612b17565b60006134d582612d32565b91506134e18285612b06565b6020820191506134f18284612b06565b5060200192915050565b60006118b782612f46565b60006118b782612fcb565b6040810161351f8285612966565b611dd76020830184612afd565b6040810161351f8285612975565b608081016135488287612975565b6135556020830186612afd565b6135626040830185612af4565b61153060608301846134ab565b60a0810161357d8288612975565b61358a6020830187612afd565b818103604083015261359c8186612b36565b905081810360608301526135b08185612b36565b90506135bf6080830184612afd565b9695505050505050565b60a081016135d78288612975565b6135e46020830187612afd565b81810360408301526135f68186612b6e565b905081810360608301526135b08185612b6e565b6080808252810161361b818761297e565b9050818103602083015261362f8186612aa6565b905081810360408301526136438185612a45565b905081810360608301526135bf81846129d7565b602081016118b78284612afd565b608081016136738287612afd565b6136806020830186612afd565b61368d6040830185612afd565b6115306060830184612975565b606081016136a88286612afd565b6136b56020830185612afd565b6126426040830184612af4565b608081016136d08287612afd565b6136dd60208301866134a2565b6136ea6040830185612afd565b6115306060830184612afd565b602081016118b78284612c16565b602081016118b78284612c1f565b60208082528101611dd78184612b36565b602080825281016118b781612c28565b602080825281016118b781612cad565b602080825281016118b781612d6b565b602080825281016118b781612dca565b602080825281016118b781612e29565b602080825281016118b781612eae565b602080825281016118b781612f0d565b602080825281016118b78161302a565b602080825281016118b7816130af565b602080825281016118b78161310e565b602080825281016118b781613193565b602080825281016118b7816131f2565b602080825281016118b781613251565b602080825281016118b7816132b0565b602080825281016118b7816132e9565b602080825281016118b78161336e565b602080825281016118b7816133cd565b602080825281016118b78161342c565b606081016118b78284613465565b6101208101613861828c612afd565b61386e602083018b612966565b8181036040830152613880818a61297e565b905081810360608301526138948189612aa6565b905081810360808301526138a88188612a45565b905081810360a08301526138bc81876129d7565b90506138cb60c0830186612afd565b6138d860e0830185612afd565b8181036101008301526138eb8184612b36565b9b9a5050505050505050505050565b6101208101613909828c612afd565b613916602083018b612975565b613923604083018a612afd565b6139306060830189612afd565b61393d6080830188612afd565b61394a60a0830187612afd565b61395760c0830186612afd565b61396460e0830185612af4565b613972610100830184612af4565b9a9950505050505050505050565b6040810161351f8285612afd565b60405181810167ffffffffffffffff811182821017156139ad57600080fd5b604052919050565b600067ffffffffffffffff8211156139cc57600080fd5b5060209081020190565b600067ffffffffffffffff8211156139ed57600080fd5b506020601f919091017fffffffffffffffffffffffffffffffffffffffffffffffffffffffffffffffe0160190565b60200190565b60009081526020902090565b5190565b90815260200190565b60006118b782613a55565b151590565b80610b3981613b16565b73ffffffffffffffffffffffffffffffffffffffff1690565b63ffffffff1690565b60ff1690565b6bffffffffffffffffffffffff1690565b60006118b7825b60006118b782613a3b565b60006118b782613a4b565b60006118b782613a7d565b82818337506000910152565b60005b83811015613add578181015183820152602001613ac5565b8381111561349c5750506000910152565b601f017fffffffffffffffffffffffffffffffffffffffffffffffffffffffffffffffe01690565b6008811061234257fe5b613b2981613a3b565b811461234257600080fd5b613b2981613a46565b613b29816104ad565b613b2981613a6e565b613b2981613a77565b613b2981613a7d56fea365627a7a72315820e791134c7abf12082491c9d9dc58d92fa7ba9a79f7fd207108f224aaae838c296c6578706572696d656e74616cf564736f6c63430005100040","opcodes":"PUSH1 0x80 PUSH1 0x40 MSTORE CALLVALUE DUP1 ISZERO PUSH3 0x11 JUMPI PUSH1 0x0 DUP1 REVERT JUMPDEST POP PUSH1 0x40 MLOAD PUSH3 0x3CE5 CODESIZE SUB DUP1 PUSH3 0x3CE5 DUP4 CODECOPY DUP2 ADD PUSH1 0x40 DUP2 SWAP1 MSTORE PUSH3 0x34 SWAP2 PUSH3 0x9B JUMP JUMPDEST PUSH1 0x0 DUP1 SLOAD PUSH1 0x1 PUSH1 0x1 PUSH1 0xA0 SHL SUB SWAP6 DUP7 AND PUSH1 0x1 PUSH1 0x1 PUSH1 0xA0 SHL SUB NOT SWAP2 DUP3 AND OR SWAP1 SWAP2 SSTORE PUSH1 0x1 DUP1 SLOAD SWAP5 DUP7 AND SWAP5 DUP3 AND SWAP5 SWAP1 SWAP5 OR SWAP1 SWAP4 SSTORE PUSH1 0x5 DUP1 SLOAD SWAP3 DUP6 AND SWAP3 DUP5 AND SWAP3 SWAP1 SWAP3 OR SWAP1 SWAP2 SSTORE PUSH1 0x6 DUP1 SLOAD SWAP2 SWAP1 SWAP4 AND SWAP2 AND OR SWAP1 SSTORE PUSH3 0x131 JUMP JUMPDEST DUP1 MLOAD PUSH3 0x95 DUP2 PUSH3 0x117 JUMP JUMPDEST SWAP3 SWAP2 POP POP JUMP JUMPDEST PUSH1 0x0 DUP1 PUSH1 0x0 DUP1 PUSH1 0x80 DUP6 DUP8 SUB SLT ISZERO PUSH3 0xB2 JUMPI PUSH1 0x0 DUP1 REVERT JUMPDEST PUSH1 0x0 PUSH3 0xC0 DUP8 DUP8 PUSH3 0x88 JUMP JUMPDEST SWAP5 POP POP PUSH1 0x20 PUSH3 0xD3 DUP8 DUP3 DUP9 ADD PUSH3 0x88 JUMP JUMPDEST SWAP4 POP POP PUSH1 0x40 PUSH3 0xE6 DUP8 DUP3 DUP9 ADD PUSH3 0x88 JUMP JUMPDEST SWAP3 POP POP PUSH1 0x60 PUSH3 0xF9 DUP8 DUP3 DUP9 ADD PUSH3 0x88 JUMP JUMPDEST SWAP2 POP POP SWAP3 SWAP6 SWAP2 SWAP5 POP SWAP3 POP JUMP JUMPDEST PUSH1 0x0 PUSH1 0x1 PUSH1 0x1 PUSH1 0xA0 SHL SUB DUP3 AND PUSH3 0x95 JUMP JUMPDEST PUSH3 0x122 DUP2 PUSH3 0x105 JUMP JUMPDEST DUP2 EQ PUSH3 0x12E JUMPI PUSH1 0x0 DUP1 REVERT JUMPDEST POP JUMP JUMPDEST PUSH2 0x3BA4 DUP1 PUSH3 0x141 PUSH1 0x0 CODECOPY PUSH1 0x0 RETURN INVALID PUSH1 0x80 PUSH1 0x40 MSTORE PUSH1 0x4 CALLDATASIZE LT PUSH2 0x180 JUMPI PUSH1 0x0 CALLDATALOAD PUSH1 0xE0 SHR DUP1 PUSH4 0x40E58EE5 GT PUSH2 0xD6 JUMPI DUP1 PUSH4 0xDA95691A GT PUSH2 0x7F JUMPI DUP1 PUSH4 0xE23A9A52 GT PUSH2 0x59 JUMPI DUP1 PUSH4 0xE23A9A52 EQ PUSH2 0x3EE JUMPI DUP1 PUSH4 0xEDC9AF95 EQ PUSH2 0x41B JUMPI DUP1 PUSH4 0xFE0D94C1 EQ PUSH2 0x430 JUMPI PUSH2 0x180 JUMP JUMPDEST DUP1 PUSH4 0xDA95691A EQ PUSH2 0x399 JUMPI DUP1 PUSH4 0xDDF0B009 EQ PUSH2 0x3B9 JUMPI DUP1 PUSH4 0xDEAAA7CC EQ PUSH2 0x3D9 JUMPI PUSH2 0x180 JUMP JUMPDEST DUP1 PUSH4 0xB58131B0 GT PUSH2 0xB0 JUMPI DUP1 PUSH4 0xB58131B0 EQ PUSH2 0x34D JUMPI DUP1 PUSH4 0xD33219B4 EQ PUSH2 0x362 JUMPI DUP1 PUSH4 0xDA35C664 EQ PUSH2 0x384 JUMPI PUSH2 0x180 JUMP JUMPDEST DUP1 PUSH4 0x40E58EE5 EQ PUSH2 0x2F8 JUMPI DUP1 PUSH4 0x4634C61F EQ PUSH2 0x318 JUMPI DUP1 PUSH4 0x7BDBE4D0 EQ PUSH2 0x338 JUMPI PUSH2 0x180 JUMP JUMPDEST DUP1 PUSH4 0x1806B5F2 GT PUSH2 0x138 JUMPI DUP1 PUSH4 0x328DD982 GT PUSH2 0x112 JUMPI DUP1 PUSH4 0x328DD982 EQ PUSH2 0x286 JUMPI DUP1 PUSH4 0x3932ABB1 EQ PUSH2 0x2B6 JUMPI DUP1 PUSH4 0x3E4F49E6 EQ PUSH2 0x2CB JUMPI PUSH2 0x180 JUMP JUMPDEST DUP1 PUSH4 0x1806B5F2 EQ PUSH2 0x249 JUMPI DUP1 PUSH4 0x20606B70 EQ PUSH2 0x25C JUMPI DUP1 PUSH4 0x24BC1A64 EQ PUSH2 0x271 JUMPI PUSH2 0x180 JUMP JUMPDEST DUP1 PUSH4 0x6FDDE03 GT PUSH2 0x169 JUMPI DUP1 PUSH4 0x6FDDE03 EQ PUSH2 0x1E5 JUMPI DUP1 PUSH4 0x12D320C5 EQ PUSH2 0x207 JUMPI DUP1 PUSH4 0x17977C61 EQ PUSH2 0x229 JUMPI PUSH2 0x180 JUMP JUMPDEST DUP1 PUSH4 0x13CF08B EQ PUSH2 0x185 JUMPI DUP1 PUSH4 0x2A251A3 EQ PUSH2 0x1C3 JUMPI JUMPDEST PUSH1 0x0 DUP1 REVERT JUMPDEST CALLVALUE DUP1 ISZERO PUSH2 0x191 JUMPI PUSH1 0x0 DUP1 REVERT JUMPDEST POP PUSH2 0x1A5 PUSH2 0x1A0 CALLDATASIZE PUSH1 0x4 PUSH2 0x285C JUMP JUMPDEST PUSH2 0x443 JUMP JUMPDEST PUSH1 0x40 MLOAD PUSH2 0x1BA SWAP10 SWAP9 SWAP8 SWAP7 SWAP6 SWAP5 SWAP4 SWAP3 SWAP2 SWAP1 PUSH2 0x38FA JUMP JUMPDEST PUSH1 0x40 MLOAD DUP1 SWAP2 SUB SWAP1 RETURN JUMPDEST CALLVALUE DUP1 ISZERO PUSH2 0x1CF JUMPI PUSH1 0x0 DUP1 REVERT JUMPDEST POP PUSH2 0x1D8 PUSH2 0x4A9 JUMP JUMPDEST PUSH1 0x40 MLOAD PUSH2 0x1BA SWAP2 SWAP1 PUSH2 0x3657 JUMP JUMPDEST CALLVALUE DUP1 ISZERO PUSH2 0x1F1 JUMPI PUSH1 0x0 DUP1 REVERT JUMPDEST POP PUSH2 0x1FA PUSH2 0x4B0 JUMP JUMPDEST PUSH1 0x40 MLOAD PUSH2 0x1BA SWAP2 SWAP1 PUSH2 0x3713 JUMP JUMPDEST CALLVALUE DUP1 ISZERO PUSH2 0x213 JUMPI PUSH1 0x0 DUP1 REVERT JUMPDEST POP PUSH2 0x227 PUSH2 0x222 CALLDATASIZE PUSH1 0x4 PUSH2 0x264A JUMP JUMPDEST PUSH2 0x4E9 JUMP JUMPDEST STOP JUMPDEST CALLVALUE DUP1 ISZERO PUSH2 0x235 JUMPI PUSH1 0x0 DUP1 REVERT JUMPDEST POP PUSH2 0x1D8 PUSH2 0x244 CALLDATASIZE PUSH1 0x4 PUSH2 0x2624 JUMP JUMPDEST PUSH2 0x523 JUMP JUMPDEST PUSH2 0x227 PUSH2 0x257 CALLDATASIZE PUSH1 0x4 PUSH2 0x2697 JUMP JUMPDEST PUSH2 0x535 JUMP JUMPDEST CALLVALUE DUP1 ISZERO PUSH2 0x268 JUMPI PUSH1 0x0 DUP1 REVERT JUMPDEST POP PUSH2 0x1D8 PUSH2 0x679 JUMP JUMPDEST CALLVALUE DUP1 ISZERO PUSH2 0x27D JUMPI PUSH1 0x0 DUP1 REVERT JUMPDEST POP PUSH2 0x1D8 PUSH2 0x690 JUMP JUMPDEST CALLVALUE DUP1 ISZERO PUSH2 0x292 JUMPI PUSH1 0x0 DUP1 REVERT JUMPDEST POP PUSH2 0x2A6 PUSH2 0x2A1 CALLDATASIZE PUSH1 0x4 PUSH2 0x285C JUMP JUMPDEST PUSH2 0x69F JUMP JUMPDEST PUSH1 0x40 MLOAD PUSH2 0x1BA SWAP5 SWAP4 SWAP3 SWAP2 SWAP1 PUSH2 0x360A JUMP JUMPDEST CALLVALUE DUP1 ISZERO PUSH2 0x2C2 JUMPI PUSH1 0x0 DUP1 REVERT JUMPDEST POP PUSH2 0x1D8 PUSH2 0x977 JUMP JUMPDEST CALLVALUE DUP1 ISZERO PUSH2 0x2D7 JUMPI PUSH1 0x0 DUP1 REVERT JUMPDEST POP PUSH2 0x2EB PUSH2 0x2E6 CALLDATASIZE PUSH1 0x4 PUSH2 0x285C JUMP JUMPDEST PUSH2 0x97C JUMP JUMPDEST PUSH1 0x40 MLOAD PUSH2 0x1BA SWAP2 SWAP1 PUSH2 0x3705 JUMP JUMPDEST CALLVALUE DUP1 ISZERO PUSH2 0x304 JUMPI PUSH1 0x0 DUP1 REVERT JUMPDEST POP PUSH2 0x227 PUSH2 0x313 CALLDATASIZE PUSH1 0x4 PUSH2 0x285C JUMP JUMPDEST PUSH2 0xB3E JUMP JUMPDEST CALLVALUE DUP1 ISZERO PUSH2 0x324 JUMPI PUSH1 0x0 DUP1 REVERT JUMPDEST POP PUSH2 0x227 PUSH2 0x333 CALLDATASIZE PUSH1 0x4 PUSH2 0x28B4 JUMP JUMPDEST PUSH2 0xE10 JUMP JUMPDEST CALLVALUE DUP1 ISZERO PUSH2 0x344 JUMPI PUSH1 0x0 DUP1 REVERT JUMPDEST POP PUSH2 0x1D8 PUSH2 0xFF2 JUMP JUMPDEST CALLVALUE DUP1 ISZERO PUSH2 0x359 JUMPI PUSH1 0x0 DUP1 REVERT JUMPDEST POP PUSH2 0x1D8 PUSH2 0xFF7 JUMP JUMPDEST CALLVALUE DUP1 ISZERO PUSH2 0x36E JUMPI PUSH1 0x0 DUP1 REVERT JUMPDEST POP PUSH2 0x377 PUSH2 0x1006 JUMP JUMPDEST PUSH1 0x40 MLOAD PUSH2 0x1BA SWAP2 SWAP1 PUSH2 0x36F7 JUMP JUMPDEST CALLVALUE DUP1 ISZERO PUSH2 0x390 JUMPI PUSH1 0x0 DUP1 REVERT JUMPDEST POP PUSH2 0x1D8 PUSH2 0x1022 JUMP JUMPDEST CALLVALUE DUP1 ISZERO PUSH2 0x3A5 JUMPI PUSH1 0x0 DUP1 REVERT JUMPDEST POP PUSH2 0x1D8 PUSH2 0x3B4 CALLDATASIZE PUSH1 0x4 PUSH2 0x26FF JUMP JUMPDEST PUSH2 0x1028 JUMP JUMPDEST CALLVALUE DUP1 ISZERO PUSH2 0x3C5 JUMPI PUSH1 0x0 DUP1 REVERT JUMPDEST POP PUSH2 0x227 PUSH2 0x3D4 CALLDATASIZE PUSH1 0x4 PUSH2 0x285C JUMP JUMPDEST PUSH2 0x1539 JUMP JUMPDEST CALLVALUE DUP1 ISZERO PUSH2 0x3E5 JUMPI PUSH1 0x0 DUP1 REVERT JUMPDEST POP PUSH2 0x1D8 PUSH2 0x1830 JUMP JUMPDEST CALLVALUE DUP1 ISZERO PUSH2 0x3FA JUMPI PUSH1 0x0 DUP1 REVERT JUMPDEST POP PUSH2 0x40E PUSH2 0x409 CALLDATASIZE PUSH1 0x4 PUSH2 0x287A JUMP JUMPDEST PUSH2 0x183C JUMP JUMPDEST PUSH1 0x40 MLOAD PUSH2 0x1BA SWAP2 SWAP1 PUSH2 0x3844 JUMP JUMPDEST CALLVALUE DUP1 ISZERO PUSH2 0x427 JUMPI PUSH1 0x0 DUP1 REVERT JUMPDEST POP PUSH2 0x377 PUSH2 0x18BD JUMP JUMPDEST PUSH2 0x227 PUSH2 0x43E CALLDATASIZE PUSH1 0x4 PUSH2 0x285C JUMP JUMPDEST PUSH2 0x18D9 JUMP JUMPDEST PUSH1 0x3 PUSH1 0x20 MSTORE PUSH1 0x0 SWAP1 DUP2 MSTORE PUSH1 0x40 SWAP1 KECCAK256 DUP1 SLOAD PUSH1 0x1 DUP3 ADD SLOAD PUSH1 0x2 DUP4 ADD SLOAD PUSH1 0x7 DUP5 ADD SLOAD PUSH1 0x8 DUP6 ADD SLOAD PUSH1 0x9 DUP7 ADD SLOAD PUSH1 0xA DUP8 ADD SLOAD PUSH1 0xB SWAP1 SWAP8 ADD SLOAD SWAP6 SWAP7 PUSH20 0xFFFFFFFFFFFFFFFFFFFFFFFFFFFFFFFFFFFFFFFF SWAP1 SWAP6 AND SWAP6 SWAP4 SWAP5 SWAP3 SWAP4 SWAP2 SWAP3 SWAP1 SWAP2 PUSH1 0xFF DUP1 DUP3 AND SWAP2 PUSH2 0x100 SWAP1 DIV AND DUP10 JUMP JUMPDEST PUSH2 0x9D80 JUMPDEST SWAP1 JUMP JUMPDEST PUSH1 0x40 MLOAD DUP1 PUSH1 0x40 ADD PUSH1 0x40 MSTORE DUP1 PUSH1 0x16 DUP2 MSTORE PUSH1 0x20 ADD PUSH32 0x556E697377617020476F7665726E6F7220416C70686100000000000000000000 DUP2 MSTORE POP DUP2 JUMP JUMPDEST PUSH1 0x5 SLOAD PUSH1 0x7 SLOAD PUSH20 0xFFFFFFFFFFFFFFFFFFFFFFFFFFFFFFFFFFFFFFFF SWAP1 DUP2 AND SWAP2 AND EQ PUSH2 0x513 JUMPI PUSH1 0x0 DUP1 REVERT JUMPDEST PUSH2 0x51E DUP4 DUP4 DUP4 PUSH2 0x1B0D JUMP JUMPDEST POP POP POP JUMP JUMPDEST PUSH1 0x4 PUSH1 0x20 MSTORE PUSH1 0x0 SWAP1 DUP2 MSTORE PUSH1 0x40 SWAP1 KECCAK256 SLOAD DUP2 JUMP JUMPDEST PUSH1 0x5 SLOAD PUSH20 0xFFFFFFFFFFFFFFFFFFFFFFFFFFFFFFFFFFFFFFFF DUP6 DUP2 AND SWAP2 AND EQ PUSH2 0x55C JUMPI PUSH1 0x0 DUP1 REVERT JUMPDEST DUP3 PUSH4 0xFFFFFFFF AND PUSH1 0x1 EQ PUSH2 0x56F JUMPI PUSH1 0x0 DUP1 REVERT JUMPDEST PUSH1 0x7 DUP1 SLOAD PUSH32 0xFFFFFFFFFFFFFFFFFFFFFFFF0000000000000000000000000000000000000000 AND PUSH20 0xFFFFFFFFFFFFFFFFFFFFFFFFFFFFFFFFFFFFFFFF DUP7 AND OR SWAP1 SSTORE PUSH1 0x40 MLOAD PUSH1 0x0 SWAP1 ADDRESS SWAP1 PUSH2 0x5C4 SWAP1 DUP6 SWAP1 DUP6 SWAP1 PUSH2 0x34BD JUMP JUMPDEST PUSH1 0x0 PUSH1 0x40 MLOAD DUP1 DUP4 SUB DUP2 PUSH1 0x0 DUP7 GAS CALL SWAP2 POP POP RETURNDATASIZE DUP1 PUSH1 0x0 DUP2 EQ PUSH2 0x601 JUMPI PUSH1 0x40 MLOAD SWAP2 POP PUSH1 0x1F NOT PUSH1 0x3F RETURNDATASIZE ADD AND DUP3 ADD PUSH1 0x40 MSTORE RETURNDATASIZE DUP3 MSTORE RETURNDATASIZE PUSH1 0x0 PUSH1 0x20 DUP5 ADD RETURNDATACOPY PUSH2 0x606 JUMP JUMPDEST PUSH1 0x60 SWAP2 POP JUMPDEST POP POP SWAP1 POP DUP1 PUSH2 0x64A JUMPI PUSH1 0x40 MLOAD PUSH32 0x8C379A000000000000000000000000000000000000000000000000000000000 DUP2 MSTORE PUSH1 0x4 ADD PUSH2 0x641 SWAP1 PUSH2 0x37F4 JUMP JUMPDEST PUSH1 0x40 MLOAD DUP1 SWAP2 SUB SWAP1 REVERT JUMPDEST POP POP PUSH1 0x7 DUP1 SLOAD PUSH32 0xFFFFFFFFFFFFFFFFFFFFFFFF0000000000000000000000000000000000000000 AND SWAP1 SSTORE POP POP POP JUMP JUMPDEST PUSH1 0x40 MLOAD PUSH2 0x685 SWAP1 PUSH2 0x34FB JUMP JUMPDEST PUSH1 0x40 MLOAD DUP1 SWAP2 SUB SWAP1 KECCAK256 DUP2 JUMP JUMPDEST PUSH11 0x2116545850052128000000 SWAP1 JUMP JUMPDEST PUSH1 0x60 DUP1 PUSH1 0x60 DUP1 PUSH1 0x0 PUSH1 0x3 PUSH1 0x0 DUP8 DUP2 MSTORE PUSH1 0x20 ADD SWAP1 DUP2 MSTORE PUSH1 0x20 ADD PUSH1 0x0 KECCAK256 SWAP1 POP DUP1 PUSH1 0x3 ADD DUP2 PUSH1 0x4 ADD DUP3 PUSH1 0x5 ADD DUP4 PUSH1 0x6 ADD DUP4 DUP1 SLOAD DUP1 PUSH1 0x20 MUL PUSH1 0x20 ADD PUSH1 0x40 MLOAD SWAP1 DUP2 ADD PUSH1 0x40 MSTORE DUP1 SWAP3 SWAP2 SWAP1 DUP2 DUP2 MSTORE PUSH1 0x20 ADD DUP3 DUP1 SLOAD DUP1 ISZERO PUSH2 0x72E JUMPI PUSH1 0x20 MUL DUP3 ADD SWAP2 SWAP1 PUSH1 0x0 MSTORE PUSH1 0x20 PUSH1 0x0 KECCAK256 SWAP1 JUMPDEST DUP2 SLOAD PUSH20 0xFFFFFFFFFFFFFFFFFFFFFFFFFFFFFFFFFFFFFFFF AND DUP2 MSTORE PUSH1 0x1 SWAP1 SWAP2 ADD SWAP1 PUSH1 0x20 ADD DUP1 DUP4 GT PUSH2 0x703 JUMPI JUMPDEST POP POP POP POP POP SWAP4 POP DUP3 DUP1 SLOAD DUP1 PUSH1 0x20 MUL PUSH1 0x20 ADD PUSH1 0x40 MLOAD SWAP1 DUP2 ADD PUSH1 0x40 MSTORE DUP1 SWAP3 SWAP2 SWAP1 DUP2 DUP2 MSTORE PUSH1 0x20 ADD DUP3 DUP1 SLOAD DUP1 ISZERO PUSH2 0x780 JUMPI PUSH1 0x20 MUL DUP3 ADD SWAP2 SWAP1 PUSH1 0x0 MSTORE PUSH1 0x20 PUSH1 0x0 KECCAK256 SWAP1 JUMPDEST DUP2 SLOAD DUP2 MSTORE PUSH1 0x20 ADD SWAP1 PUSH1 0x1 ADD SWAP1 DUP1 DUP4 GT PUSH2 0x76C JUMPI JUMPDEST POP POP POP POP POP SWAP3 POP DUP2 DUP1 SLOAD DUP1 PUSH1 0x20 MUL PUSH1 0x20 ADD PUSH1 0x40 MLOAD SWAP1 DUP2 ADD PUSH1 0x40 MSTORE DUP1 SWAP3 SWAP2 SWAP1 DUP2 DUP2 MSTORE PUSH1 0x20 ADD PUSH1 0x0 SWAP1 JUMPDEST DUP3 DUP3 LT ISZERO PUSH2 0x871 JUMPI PUSH1 0x0 DUP5 DUP2 MSTORE PUSH1 0x20 SWAP1 DUP2 SWAP1 KECCAK256 DUP4 ADD DUP1 SLOAD PUSH1 0x40 DUP1 MLOAD PUSH1 0x1F PUSH1 0x2 PUSH32 0xFFFFFFFFFFFFFFFFFFFFFFFFFFFFFFFFFFFFFFFFFFFFFFFFFFFFFFFFFFFFFFFF PUSH2 0x100 PUSH1 0x1 DUP8 AND ISZERO MUL ADD SWAP1 SWAP5 AND SWAP4 SWAP1 SWAP4 DIV SWAP3 DUP4 ADD DUP6 SWAP1 DIV DUP6 MUL DUP2 ADD DUP6 ADD SWAP1 SWAP2 MSTORE DUP2 DUP2 MSTORE SWAP3 DUP4 ADD DUP3 DUP3 DUP1 ISZERO PUSH2 0x85D JUMPI DUP1 PUSH1 0x1F LT PUSH2 0x832 JUMPI PUSH2 0x100 DUP1 DUP4 SLOAD DIV MUL DUP4 MSTORE SWAP2 PUSH1 0x20 ADD SWAP2 PUSH2 0x85D JUMP JUMPDEST DUP3 ADD SWAP2 SWAP1 PUSH1 0x0 MSTORE PUSH1 0x20 PUSH1 0x0 KECCAK256 SWAP1 JUMPDEST DUP2 SLOAD DUP2 MSTORE SWAP1 PUSH1 0x1 ADD SWAP1 PUSH1 0x20 ADD DUP1 DUP4 GT PUSH2 0x840 JUMPI DUP3 SWAP1 SUB PUSH1 0x1F AND DUP3 ADD SWAP2 JUMPDEST POP POP POP POP POP DUP2 MSTORE PUSH1 0x20 ADD SWAP1 PUSH1 0x1 ADD SWAP1 PUSH2 0x7A8 JUMP JUMPDEST POP POP POP POP SWAP2 POP DUP1 DUP1 SLOAD DUP1 PUSH1 0x20 MUL PUSH1 0x20 ADD PUSH1 0x40 MLOAD SWAP1 DUP2 ADD PUSH1 0x40 MSTORE DUP1 SWAP3 SWAP2 SWAP1 DUP2 DUP2 MSTORE PUSH1 0x20 ADD PUSH1 0x0 SWAP1 JUMPDEST DUP3 DUP3 LT ISZERO PUSH2 0x961 JUMPI PUSH1 0x0 DUP5 DUP2 MSTORE PUSH1 0x20 SWAP1 DUP2 SWAP1 KECCAK256 DUP4 ADD DUP1 SLOAD PUSH1 0x40 DUP1 MLOAD PUSH1 0x1F PUSH1 0x2 PUSH32 0xFFFFFFFFFFFFFFFFFFFFFFFFFFFFFFFFFFFFFFFFFFFFFFFFFFFFFFFFFFFFFFFF PUSH2 0x100 PUSH1 0x1 DUP8 AND ISZERO MUL ADD SWAP1 SWAP5 AND SWAP4 SWAP1 SWAP4 DIV SWAP3 DUP4 ADD DUP6 SWAP1 DIV DUP6 MUL DUP2 ADD DUP6 ADD SWAP1 SWAP2 MSTORE DUP2 DUP2 MSTORE SWAP3 DUP4 ADD DUP3 DUP3 DUP1 ISZERO PUSH2 0x94D JUMPI DUP1 PUSH1 0x1F LT PUSH2 0x922 JUMPI PUSH2 0x100 DUP1 DUP4 SLOAD DIV MUL DUP4 MSTORE SWAP2 PUSH1 0x20 ADD SWAP2 PUSH2 0x94D JUMP JUMPDEST DUP3 ADD SWAP2 SWAP1 PUSH1 0x0 MSTORE PUSH1 0x20 PUSH1 0x0 KECCAK256 SWAP1 JUMPDEST DUP2 SLOAD DUP2 MSTORE SWAP1 PUSH1 0x1 ADD SWAP1 PUSH1 0x20 ADD DUP1 DUP4 GT PUSH2 0x930 JUMPI DUP3 SWAP1 SUB PUSH1 0x1F AND DUP3 ADD SWAP2 JUMPDEST POP POP POP POP POP DUP2 MSTORE PUSH1 0x20 ADD SWAP1 PUSH1 0x1 ADD SWAP1 PUSH2 0x898 JUMP JUMPDEST POP POP POP POP SWAP1 POP SWAP5 POP SWAP5 POP SWAP5 POP SWAP5 POP POP SWAP2 SWAP4 POP SWAP2 SWAP4 JUMP JUMPDEST PUSH1 0x1 SWAP1 JUMP JUMPDEST PUSH1 0x0 DUP2 PUSH1 0x2 SLOAD LT ISZERO DUP1 ISZERO PUSH2 0x990 JUMPI POP PUSH1 0x0 DUP3 GT JUMPDEST PUSH2 0x9C6 JUMPI PUSH1 0x40 MLOAD PUSH32 0x8C379A000000000000000000000000000000000000000000000000000000000 DUP2 MSTORE PUSH1 0x4 ADD PUSH2 0x641 SWAP1 PUSH2 0x3744 JUMP JUMPDEST PUSH1 0x0 DUP3 DUP2 MSTORE PUSH1 0x3 PUSH1 0x20 MSTORE PUSH1 0x40 SWAP1 KECCAK256 PUSH1 0xB DUP2 ADD SLOAD PUSH1 0xFF AND ISZERO PUSH2 0x9EB JUMPI PUSH1 0x2 SWAP2 POP POP PUSH2 0xB39 JUMP JUMPDEST DUP1 PUSH1 0x7 ADD SLOAD NUMBER GT PUSH2 0xA00 JUMPI PUSH1 0x0 SWAP2 POP POP PUSH2 0xB39 JUMP JUMPDEST DUP1 PUSH1 0x8 ADD SLOAD NUMBER GT PUSH2 0xA15 JUMPI PUSH1 0x1 SWAP2 POP POP PUSH2 0xB39 JUMP JUMPDEST DUP1 PUSH1 0xA ADD SLOAD DUP2 PUSH1 0x9 ADD SLOAD GT ISZERO DUP1 PUSH2 0xA36 JUMPI POP PUSH2 0xA2F PUSH2 0x690 JUMP JUMPDEST DUP2 PUSH1 0x9 ADD SLOAD LT JUMPDEST ISZERO PUSH2 0xA45 JUMPI PUSH1 0x3 SWAP2 POP POP PUSH2 0xB39 JUMP JUMPDEST PUSH1 0x2 DUP2 ADD SLOAD PUSH2 0xA58 JUMPI PUSH1 0x4 SWAP2 POP POP PUSH2 0xB39 JUMP JUMPDEST PUSH1 0xB DUP2 ADD SLOAD PUSH2 0x100 SWAP1 DIV PUSH1 0xFF AND ISZERO PUSH2 0xA74 JUMPI PUSH1 0x7 SWAP2 POP POP PUSH2 0xB39 JUMP JUMPDEST PUSH1 0x2 DUP2 ADD SLOAD PUSH1 0x0 SLOAD PUSH1 0x40 DUP1 MLOAD PUSH32 0xC1A287E200000000000000000000000000000000000000000000000000000000 DUP2 MSTORE SWAP1 MLOAD PUSH2 0xB23 SWAP4 SWAP3 PUSH20 0xFFFFFFFFFFFFFFFFFFFFFFFFFFFFFFFFFFFFFFFF AND SWAP2 PUSH4 0xC1A287E2 SWAP2 PUSH1 0x4 DUP1 DUP4 ADD SWAP3 PUSH1 0x20 SWAP3 SWAP2 SWAP1 DUP3 SWAP1 SUB ADD DUP2 DUP7 DUP1 EXTCODESIZE ISZERO DUP1 ISZERO PUSH2 0xAE6 JUMPI PUSH1 0x0 DUP1 REVERT JUMPDEST POP GAS STATICCALL ISZERO DUP1 ISZERO PUSH2 0xAFA JUMPI RETURNDATASIZE PUSH1 0x0 DUP1 RETURNDATACOPY RETURNDATASIZE PUSH1 0x0 REVERT JUMPDEST POP POP POP POP PUSH1 0x40 MLOAD RETURNDATASIZE PUSH1 0x1F NOT PUSH1 0x1F DUP3 ADD AND DUP3 ADD DUP1 PUSH1 0x40 MSTORE POP PUSH2 0xB1E SWAP2 SWAP1 DUP2 ADD SWAP1 PUSH2 0x2809 JUMP JUMPDEST PUSH2 0x1D98 JUMP JUMPDEST TIMESTAMP LT PUSH2 0xB33 JUMPI PUSH1 0x6 SWAP2 POP POP PUSH2 0xB39 JUMP JUMPDEST PUSH1 0x5 SWAP2 POP POP JUMPDEST SWAP2 SWAP1 POP JUMP JUMPDEST PUSH1 0x0 PUSH2 0xB49 DUP3 PUSH2 0x97C JUMP JUMPDEST SWAP1 POP PUSH1 0x7 DUP2 PUSH1 0x7 DUP2 GT ISZERO PUSH2 0xB59 JUMPI INVALID JUMPDEST EQ ISZERO PUSH2 0xB91 JUMPI PUSH1 0x40 MLOAD PUSH32 0x8C379A000000000000000000000000000000000000000000000000000000000 DUP2 MSTORE PUSH1 0x4 ADD PUSH2 0x641 SWAP1 PUSH2 0x3814 JUMP JUMPDEST PUSH1 0x0 DUP3 DUP2 MSTORE PUSH1 0x3 PUSH1 0x20 MSTORE PUSH1 0x40 SWAP1 KECCAK256 PUSH2 0xBA7 PUSH2 0xFF7 JUMP JUMPDEST PUSH1 0x1 DUP1 SLOAD DUP4 DUP3 ADD SLOAD PUSH20 0xFFFFFFFFFFFFFFFFFFFFFFFFFFFFFFFFFFFFFFFF SWAP2 DUP3 AND SWAP3 PUSH4 0x782D6FE1 SWAP3 SWAP1 SWAP2 AND SWAP1 PUSH2 0xBDD SWAP1 NUMBER SWAP1 PUSH2 0x1DDE JUMP JUMPDEST PUSH1 0x40 MLOAD DUP4 PUSH4 0xFFFFFFFF AND PUSH1 0xE0 SHL DUP2 MSTORE PUSH1 0x4 ADD PUSH2 0xBFA SWAP3 SWAP2 SWAP1 PUSH2 0x352C JUMP JUMPDEST PUSH1 0x20 PUSH1 0x40 MLOAD DUP1 DUP4 SUB DUP2 DUP7 DUP1 EXTCODESIZE ISZERO DUP1 ISZERO PUSH2 0xC12 JUMPI PUSH1 0x0 DUP1 REVERT JUMPDEST POP GAS STATICCALL ISZERO DUP1 ISZERO PUSH2 0xC26 JUMPI RETURNDATASIZE PUSH1 0x0 DUP1 RETURNDATACOPY RETURNDATASIZE PUSH1 0x0 REVERT JUMPDEST POP POP POP POP PUSH1 0x40 MLOAD RETURNDATASIZE PUSH1 0x1F NOT PUSH1 0x1F DUP3 ADD AND DUP3 ADD DUP1 PUSH1 0x40 MSTORE POP PUSH2 0xC4A SWAP2 SWAP1 DUP2 ADD SWAP1 PUSH2 0x291C JUMP JUMPDEST PUSH12 0xFFFFFFFFFFFFFFFFFFFFFFFF AND LT PUSH2 0xC8F JUMPI PUSH1 0x40 MLOAD PUSH32 0x8C379A000000000000000000000000000000000000000000000000000000000 DUP2 MSTORE PUSH1 0x4 ADD PUSH2 0x641 SWAP1 PUSH2 0x37A4 JUMP JUMPDEST PUSH1 0xB DUP2 ADD DUP1 SLOAD PUSH32 0xFFFFFFFFFFFFFFFFFFFFFFFFFFFFFFFFFFFFFFFFFFFFFFFFFFFFFFFFFFFFFF00 AND PUSH1 0x1 OR SWAP1 SSTORE PUSH1 0x0 JUMPDEST PUSH1 0x3 DUP3 ADD SLOAD DUP2 LT ISZERO PUSH2 0xDD3 JUMPI PUSH1 0x0 SLOAD PUSH1 0x3 DUP4 ADD DUP1 SLOAD PUSH20 0xFFFFFFFFFFFFFFFFFFFFFFFFFFFFFFFFFFFFFFFF SWAP1 SWAP3 AND SWAP2 PUSH4 0x591FCDFE SWAP2 SWAP1 DUP5 SWAP1 DUP2 LT PUSH2 0xCFE JUMPI INVALID JUMPDEST PUSH1 0x0 SWAP2 DUP3 MSTORE PUSH1 0x20 SWAP1 SWAP2 KECCAK256 ADD SLOAD PUSH1 0x4 DUP6 ADD DUP1 SLOAD PUSH20 0xFFFFFFFFFFFFFFFFFFFFFFFFFFFFFFFFFFFFFFFF SWAP1 SWAP3 AND SWAP2 DUP6 SWAP1 DUP2 LT PUSH2 0xD33 JUMPI INVALID JUMPDEST SWAP1 PUSH1 0x0 MSTORE PUSH1 0x20 PUSH1 0x0 KECCAK256 ADD SLOAD DUP6 PUSH1 0x5 ADD DUP6 DUP2 SLOAD DUP2 LT PUSH2 0xD4D JUMPI INVALID JUMPDEST SWAP1 PUSH1 0x0 MSTORE PUSH1 0x20 PUSH1 0x0 KECCAK256 ADD DUP7 PUSH1 0x6 ADD DUP7 DUP2 SLOAD DUP2 LT PUSH2 0xD66 JUMPI INVALID JUMPDEST SWAP1 PUSH1 0x0 MSTORE PUSH1 0x20 PUSH1 0x0 KECCAK256 ADD DUP8 PUSH1 0x2 ADD SLOAD PUSH1 0x40 MLOAD DUP7 PUSH4 0xFFFFFFFF AND PUSH1 0xE0 SHL DUP2 MSTORE PUSH1 0x4 ADD PUSH2 0xD95 SWAP6 SWAP5 SWAP4 SWAP3 SWAP2 SWAP1 PUSH2 0x35C9 JUMP JUMPDEST PUSH1 0x0 PUSH1 0x40 MLOAD DUP1 DUP4 SUB DUP2 PUSH1 0x0 DUP8 DUP1 EXTCODESIZE ISZERO DUP1 ISZERO PUSH2 0xDAF JUMPI PUSH1 0x0 DUP1 REVERT JUMPDEST POP GAS CALL ISZERO DUP1 ISZERO PUSH2 0xDC3 JUMPI RETURNDATASIZE PUSH1 0x0 DUP1 RETURNDATACOPY RETURNDATASIZE PUSH1 0x0 REVERT JUMPDEST POP POP PUSH1 0x1 SWAP1 SWAP3 ADD SWAP2 POP PUSH2 0xCBF SWAP1 POP JUMP JUMPDEST POP PUSH32 0x789CF55BE980739DAD1D0699B93B58E806B51C9D96619BFA8FE0A28ABAA7B30C DUP4 PUSH1 0x40 MLOAD PUSH2 0xE03 SWAP2 SWAP1 PUSH2 0x3657 JUMP JUMPDEST PUSH1 0x40 MLOAD DUP1 SWAP2 SUB SWAP1 LOG1 POP POP POP JUMP JUMPDEST PUSH1 0x0 PUSH1 0x40 MLOAD PUSH2 0xE1E SWAP1 PUSH2 0x34FB JUMP JUMPDEST PUSH1 0x40 DUP1 MLOAD SWAP2 DUP3 SWAP1 SUB DUP3 KECCAK256 DUP3 DUP3 ADD SWAP1 SWAP2 MSTORE PUSH1 0x16 DUP3 MSTORE PUSH32 0x556E697377617020476F7665726E6F7220416C70686100000000000000000000 PUSH1 0x20 SWAP1 SWAP3 ADD SWAP2 SWAP1 SWAP2 MSTORE PUSH32 0xA5E0CFCFBED4E8AF9BBB6C62A3DCBD52DEDB58A723EE69F4D714B41681F2C447 PUSH2 0xE85 PUSH2 0x1E20 JUMP JUMPDEST ADDRESS PUSH1 0x40 MLOAD PUSH1 0x20 ADD PUSH2 0xE99 SWAP5 SWAP4 SWAP3 SWAP2 SWAP1 PUSH2 0x3665 JUMP JUMPDEST PUSH1 0x40 MLOAD PUSH1 0x20 DUP2 DUP4 SUB SUB DUP2 MSTORE SWAP1 PUSH1 0x40 MSTORE DUP1 MLOAD SWAP1 PUSH1 0x20 ADD KECCAK256 SWAP1 POP PUSH1 0x0 PUSH1 0x40 MLOAD PUSH2 0xEBF SWAP1 PUSH2 0x3506 JUMP JUMPDEST PUSH1 0x40 MLOAD SWAP1 DUP2 SWAP1 SUB DUP2 KECCAK256 PUSH2 0xED8 SWAP2 DUP10 SWAP1 DUP10 SWAP1 PUSH1 0x20 ADD PUSH2 0x369A JUMP JUMPDEST PUSH1 0x40 MLOAD PUSH1 0x20 DUP2 DUP4 SUB SUB DUP2 MSTORE SWAP1 PUSH1 0x40 MSTORE DUP1 MLOAD SWAP1 PUSH1 0x20 ADD KECCAK256 SWAP1 POP PUSH1 0x0 DUP3 DUP3 PUSH1 0x40 MLOAD PUSH1 0x20 ADD PUSH2 0xF05 SWAP3 SWAP2 SWAP1 PUSH2 0x34CA JUMP JUMPDEST PUSH1 0x40 MLOAD PUSH1 0x20 DUP2 DUP4 SUB SUB DUP2 MSTORE SWAP1 PUSH1 0x40 MSTORE DUP1 MLOAD SWAP1 PUSH1 0x20 ADD KECCAK256 SWAP1 POP PUSH1 0x0 PUSH1 0x1 DUP3 DUP9 DUP9 DUP9 PUSH1 0x40 MLOAD PUSH1 0x0 DUP2 MSTORE PUSH1 0x20 ADD PUSH1 0x40 MSTORE PUSH1 0x40 MLOAD PUSH2 0xF42 SWAP5 SWAP4 SWAP3 SWAP2 SWAP1 PUSH2 0x36C2 JUMP JUMPDEST PUSH1 0x20 PUSH1 0x40 MLOAD PUSH1 0x20 DUP2 SUB SWAP1 DUP1 DUP5 SUB SWAP1 DUP6 GAS STATICCALL ISZERO DUP1 ISZERO PUSH2 0xF64 JUMPI RETURNDATASIZE PUSH1 0x0 DUP1 RETURNDATACOPY RETURNDATASIZE PUSH1 0x0 REVERT JUMPDEST POP POP PUSH1 0x40 MLOAD PUSH32 0xFFFFFFFFFFFFFFFFFFFFFFFFFFFFFFFFFFFFFFFFFFFFFFFFFFFFFFFFFFFFFFE0 ADD MLOAD SWAP2 POP POP PUSH20 0xFFFFFFFFFFFFFFFFFFFFFFFFFFFFFFFFFFFFFFFF DUP2 AND PUSH2 0xFDC JUMPI PUSH1 0x40 MLOAD PUSH32 0x8C379A000000000000000000000000000000000000000000000000000000000 DUP2 MSTORE PUSH1 0x4 ADD PUSH2 0x641 SWAP1 PUSH2 0x37E4 JUMP JUMPDEST PUSH2 0xFE7 DUP2 DUP11 DUP11 PUSH2 0x1B0D JUMP JUMPDEST POP POP POP POP POP POP POP POP POP JUMP JUMPDEST PUSH1 0xA SWAP1 JUMP JUMPDEST PUSH11 0x84595161401484A000000 SWAP1 JUMP JUMPDEST PUSH1 0x0 SLOAD PUSH20 0xFFFFFFFFFFFFFFFFFFFFFFFFFFFFFFFFFFFFFFFF AND DUP2 JUMP JUMPDEST PUSH1 0x2 SLOAD DUP2 JUMP JUMPDEST PUSH1 0x0 PUSH2 0x1032 PUSH2 0xFF7 JUMP JUMPDEST PUSH1 0x1 DUP1 SLOAD PUSH20 0xFFFFFFFFFFFFFFFFFFFFFFFFFFFFFFFFFFFFFFFF AND SWAP1 PUSH4 0x782D6FE1 SWAP1 CALLER SWAP1 PUSH2 0x1060 SWAP1 NUMBER SWAP1 PUSH2 0x1DDE JUMP JUMPDEST PUSH1 0x40 MLOAD DUP4 PUSH4 0xFFFFFFFF AND PUSH1 0xE0 SHL DUP2 MSTORE PUSH1 0x4 ADD PUSH2 0x107D SWAP3 SWAP2 SWAP1 PUSH2 0x3511 JUMP JUMPDEST PUSH1 0x20 PUSH1 0x40 MLOAD DUP1 DUP4 SUB DUP2 DUP7 DUP1 EXTCODESIZE ISZERO DUP1 ISZERO PUSH2 0x1095 JUMPI PUSH1 0x0 DUP1 REVERT JUMPDEST POP GAS STATICCALL ISZERO DUP1 ISZERO PUSH2 0x10A9 JUMPI RETURNDATASIZE PUSH1 0x0 DUP1 RETURNDATACOPY RETURNDATASIZE PUSH1 0x0 REVERT JUMPDEST POP POP POP POP PUSH1 0x40 MLOAD RETURNDATASIZE PUSH1 0x1F NOT PUSH1 0x1F DUP3 ADD AND DUP3 ADD DUP1 PUSH1 0x40 MSTORE POP PUSH2 0x10CD SWAP2 SWAP1 DUP2 ADD SWAP1 PUSH2 0x291C JUMP JUMPDEST PUSH12 0xFFFFFFFFFFFFFFFFFFFFFFFF AND GT PUSH2 0x1112 JUMPI PUSH1 0x40 MLOAD PUSH32 0x8C379A000000000000000000000000000000000000000000000000000000000 DUP2 MSTORE PUSH1 0x4 ADD PUSH2 0x641 SWAP1 PUSH2 0x37D4 JUMP JUMPDEST DUP5 MLOAD DUP7 MLOAD EQ DUP1 ISZERO PUSH2 0x1124 JUMPI POP DUP4 MLOAD DUP7 MLOAD EQ JUMPDEST DUP1 ISZERO PUSH2 0x1131 JUMPI POP DUP3 MLOAD DUP7 MLOAD EQ JUMPDEST PUSH2 0x1167 JUMPI PUSH1 0x40 MLOAD PUSH32 0x8C379A000000000000000000000000000000000000000000000000000000000 DUP2 MSTORE PUSH1 0x4 ADD PUSH2 0x641 SWAP1 PUSH2 0x3794 JUMP JUMPDEST DUP6 MLOAD PUSH2 0x119F JUMPI PUSH1 0x40 MLOAD PUSH32 0x8C379A000000000000000000000000000000000000000000000000000000000 DUP2 MSTORE PUSH1 0x4 ADD PUSH2 0x641 SWAP1 PUSH2 0x37C4 JUMP JUMPDEST PUSH2 0x11A7 PUSH2 0xFF2 JUMP JUMPDEST DUP7 MLOAD GT ISZERO PUSH2 0x11E1 JUMPI PUSH1 0x40 MLOAD PUSH32 0x8C379A000000000000000000000000000000000000000000000000000000000 DUP2 MSTORE PUSH1 0x4 ADD PUSH2 0x641 SWAP1 PUSH2 0x3774 JUMP JUMPDEST CALLER PUSH1 0x0 SWAP1 DUP2 MSTORE PUSH1 0x4 PUSH1 0x20 MSTORE PUSH1 0x40 SWAP1 KECCAK256 SLOAD DUP1 ISZERO PUSH2 0x1292 JUMPI PUSH1 0x0 PUSH2 0x1202 DUP3 PUSH2 0x97C JUMP JUMPDEST SWAP1 POP PUSH1 0x1 DUP2 PUSH1 0x7 DUP2 GT ISZERO PUSH2 0x1212 JUMPI INVALID JUMPDEST EQ ISZERO PUSH2 0x124A JUMPI PUSH1 0x40 MLOAD PUSH32 0x8C379A000000000000000000000000000000000000000000000000000000000 DUP2 MSTORE PUSH1 0x4 ADD PUSH2 0x641 SWAP1 PUSH2 0x3804 JUMP JUMPDEST PUSH1 0x0 DUP2 PUSH1 0x7 DUP2 GT ISZERO PUSH2 0x1258 JUMPI INVALID JUMPDEST EQ ISZERO PUSH2 0x1290 JUMPI PUSH1 0x40 MLOAD PUSH32 0x8C379A000000000000000000000000000000000000000000000000000000000 DUP2 MSTORE PUSH1 0x4 ADD PUSH2 0x641 SWAP1 PUSH2 0x3764 JUMP JUMPDEST POP JUMPDEST PUSH1 0x0 PUSH2 0x12A0 NUMBER PUSH2 0xB1E PUSH2 0x977 JUMP JUMPDEST SWAP1 POP PUSH1 0x0 PUSH2 0x12B0 DUP3 PUSH2 0xB1E PUSH2 0x4A9 JUMP JUMPDEST PUSH1 0x2 DUP1 SLOAD PUSH1 0x1 ADD SWAP1 SSTORE SWAP1 POP PUSH2 0x12C3 PUSH2 0x1FD0 JUMP JUMPDEST PUSH1 0x40 MLOAD DUP1 PUSH2 0x1A0 ADD PUSH1 0x40 MSTORE DUP1 PUSH1 0x2 SLOAD DUP2 MSTORE PUSH1 0x20 ADD CALLER PUSH20 0xFFFFFFFFFFFFFFFFFFFFFFFFFFFFFFFFFFFFFFFF AND DUP2 MSTORE PUSH1 0x20 ADD PUSH1 0x0 DUP2 MSTORE PUSH1 0x20 ADD DUP12 DUP2 MSTORE PUSH1 0x20 ADD DUP11 DUP2 MSTORE PUSH1 0x20 ADD DUP10 DUP2 MSTORE PUSH1 0x20 ADD DUP9 DUP2 MSTORE PUSH1 0x20 ADD DUP5 DUP2 MSTORE PUSH1 0x20 ADD DUP4 DUP2 MSTORE PUSH1 0x20 ADD PUSH1 0x0 DUP2 MSTORE PUSH1 0x20 ADD PUSH1 0x0 DUP2 MSTORE PUSH1 0x20 ADD PUSH1 0x0 ISZERO ISZERO DUP2 MSTORE PUSH1 0x20 ADD PUSH1 0x0 ISZERO ISZERO DUP2 MSTORE POP SWAP1 POP DUP1 PUSH1 0x3 PUSH1 0x0 DUP4 PUSH1 0x0 ADD MLOAD DUP2 MSTORE PUSH1 0x20 ADD SWAP1 DUP2 MSTORE PUSH1 0x20 ADD PUSH1 0x0 KECCAK256 PUSH1 0x0 DUP3 ADD MLOAD DUP2 PUSH1 0x0 ADD SSTORE PUSH1 0x20 DUP3 ADD MLOAD DUP2 PUSH1 0x1 ADD PUSH1 0x0 PUSH2 0x100 EXP DUP2 SLOAD DUP2 PUSH20 0xFFFFFFFFFFFFFFFFFFFFFFFFFFFFFFFFFFFFFFFF MUL NOT AND SWAP1 DUP4 PUSH20 0xFFFFFFFFFFFFFFFFFFFFFFFFFFFFFFFFFFFFFFFF AND MUL OR SWAP1 SSTORE POP PUSH1 0x40 DUP3 ADD MLOAD DUP2 PUSH1 0x2 ADD SSTORE PUSH1 0x60 DUP3 ADD MLOAD DUP2 PUSH1 0x3 ADD SWAP1 DUP1 MLOAD SWAP1 PUSH1 0x20 ADD SWAP1 PUSH2 0x13CD SWAP3 SWAP2 SWAP1 PUSH2 0x2052 JUMP JUMPDEST POP PUSH1 0x80 DUP3 ADD MLOAD DUP1 MLOAD PUSH2 0x13E9 SWAP2 PUSH1 0x4 DUP5 ADD SWAP2 PUSH1 0x20 SWAP1 SWAP2 ADD SWAP1 PUSH2 0x20DC JUMP JUMPDEST POP PUSH1 0xA0 DUP3 ADD MLOAD DUP1 MLOAD PUSH2 0x1405 SWAP2 PUSH1 0x5 DUP5 ADD SWAP2 PUSH1 0x20 SWAP1 SWAP2 ADD SWAP1 PUSH2 0x2123 JUMP JUMPDEST POP PUSH1 0xC0 DUP3 ADD MLOAD DUP1 MLOAD PUSH2 0x1421 SWAP2 PUSH1 0x6 DUP5 ADD SWAP2 PUSH1 0x20 SWAP1 SWAP2 ADD SWAP1 PUSH2 0x217C JUMP JUMPDEST POP PUSH1 0xE0 DUP3 ADD MLOAD DUP2 PUSH1 0x7 ADD SSTORE PUSH2 0x100 DUP3 ADD MLOAD DUP2 PUSH1 0x8 ADD SSTORE PUSH2 0x120 DUP3 ADD MLOAD DUP2 PUSH1 0x9 ADD SSTORE PUSH2 0x140 DUP3 ADD MLOAD DUP2 PUSH1 0xA ADD SSTORE PUSH2 0x160 DUP3 ADD MLOAD DUP2 PUSH1 0xB ADD PUSH1 0x0 PUSH2 0x100 EXP DUP2 SLOAD DUP2 PUSH1 0xFF MUL NOT AND SWAP1 DUP4 ISZERO ISZERO MUL OR SWAP1 SSTORE POP PUSH2 0x180 DUP3 ADD MLOAD DUP2 PUSH1 0xB ADD PUSH1 0x1 PUSH2 0x100 EXP DUP2 SLOAD DUP2 PUSH1 0xFF MUL NOT AND SWAP1 DUP4 ISZERO ISZERO MUL OR SWAP1 SSTORE POP SWAP1 POP POP DUP1 PUSH1 0x0 ADD MLOAD PUSH1 0x4 PUSH1 0x0 DUP4 PUSH1 0x20 ADD MLOAD PUSH20 0xFFFFFFFFFFFFFFFFFFFFFFFFFFFFFFFFFFFFFFFF AND PUSH20 0xFFFFFFFFFFFFFFFFFFFFFFFFFFFFFFFFFFFFFFFF AND DUP2 MSTORE PUSH1 0x20 ADD SWAP1 DUP2 MSTORE PUSH1 0x20 ADD PUSH1 0x0 KECCAK256 DUP2 SWAP1 SSTORE POP PUSH32 0x7D84A6263AE0D98D3329BD7B46BB4E8D6F98CD35A7ADB45C274C8B7FD5EBD5E0 DUP2 PUSH1 0x0 ADD MLOAD CALLER DUP13 DUP13 DUP13 DUP13 DUP10 DUP10 DUP15 PUSH1 0x40 MLOAD PUSH2 0x1521 SWAP10 SWAP9 SWAP8 SWAP7 SWAP6 SWAP5 SWAP4 SWAP3 SWAP2 SWAP1 PUSH2 0x3852 JUMP JUMPDEST PUSH1 0x40 MLOAD DUP1 SWAP2 SUB SWAP1 LOG1 MLOAD SWAP4 POP POP POP POP JUMPDEST SWAP6 SWAP5 POP POP POP POP POP JUMP JUMPDEST PUSH1 0x4 PUSH2 0x1544 DUP3 PUSH2 0x97C JUMP JUMPDEST PUSH1 0x7 DUP2 GT ISZERO PUSH2 0x154F JUMPI INVALID JUMPDEST EQ PUSH2 0x1586 JUMPI PUSH1 0x40 MLOAD PUSH32 0x8C379A000000000000000000000000000000000000000000000000000000000 DUP2 MSTORE PUSH1 0x4 ADD PUSH2 0x641 SWAP1 PUSH2 0x3724 JUMP JUMPDEST PUSH1 0x0 DUP2 DUP2 MSTORE PUSH1 0x3 PUSH1 0x20 SWAP1 DUP2 MSTORE PUSH1 0x40 DUP1 DUP4 KECCAK256 DUP4 SLOAD DUP3 MLOAD PUSH32 0x6A42B8F800000000000000000000000000000000000000000000000000000000 DUP2 MSTORE SWAP3 MLOAD SWAP2 SWAP5 SWAP4 PUSH2 0x1605 SWAP4 TIMESTAMP SWAP4 PUSH20 0xFFFFFFFFFFFFFFFFFFFFFFFFFFFFFFFFFFFFFFFF SWAP1 SWAP4 AND SWAP3 PUSH4 0x6A42B8F8 SWAP3 PUSH1 0x4 DUP1 DUP5 ADD SWAP4 SWAP2 SWAP3 SWAP2 DUP3 SWAP1 SUB ADD DUP2 DUP7 DUP1 EXTCODESIZE ISZERO DUP1 ISZERO PUSH2 0xAE6 JUMPI PUSH1 0x0 DUP1 REVERT JUMPDEST SWAP1 POP PUSH1 0x0 JUMPDEST PUSH1 0x3 DUP4 ADD SLOAD DUP2 LT ISZERO PUSH2 0x17F6 JUMPI PUSH2 0x17EE DUP4 PUSH1 0x3 ADD DUP3 DUP2 SLOAD DUP2 LT PUSH2 0x1628 JUMPI INVALID JUMPDEST PUSH1 0x0 SWAP2 DUP3 MSTORE PUSH1 0x20 SWAP1 SWAP2 KECCAK256 ADD SLOAD PUSH1 0x4 DUP6 ADD DUP1 SLOAD PUSH20 0xFFFFFFFFFFFFFFFFFFFFFFFFFFFFFFFFFFFFFFFF SWAP1 SWAP3 AND SWAP2 DUP5 SWAP1 DUP2 LT PUSH2 0x165D JUMPI INVALID JUMPDEST SWAP1 PUSH1 0x0 MSTORE PUSH1 0x20 PUSH1 0x0 KECCAK256 ADD SLOAD DUP6 PUSH1 0x5 ADD DUP5 DUP2 SLOAD DUP2 LT PUSH2 0x1677 JUMPI INVALID JUMPDEST PUSH1 0x0 SWAP2 DUP3 MSTORE PUSH1 0x20 SWAP2 DUP3 SWAP1 KECCAK256 ADD DUP1 SLOAD PUSH1 0x40 DUP1 MLOAD PUSH1 0x1F PUSH1 0x2 PUSH32 0xFFFFFFFFFFFFFFFFFFFFFFFFFFFFFFFFFFFFFFFFFFFFFFFFFFFFFFFFFFFFFFFF PUSH2 0x100 PUSH1 0x1 DUP8 AND ISZERO MUL ADD SWAP1 SWAP5 AND SWAP4 SWAP1 SWAP4 DIV SWAP3 DUP4 ADD DUP6 SWAP1 DIV DUP6 MUL DUP2 ADD DUP6 ADD SWAP1 SWAP2 MSTORE DUP2 DUP2 MSTORE SWAP3 DUP4 ADD DUP3 DUP3 DUP1 ISZERO PUSH2 0x1723 JUMPI DUP1 PUSH1 0x1F LT PUSH2 0x16F8 JUMPI PUSH2 0x100 DUP1 DUP4 SLOAD DIV MUL DUP4 MSTORE SWAP2 PUSH1 0x20 ADD SWAP2 PUSH2 0x1723 JUMP JUMPDEST DUP3 ADD SWAP2 SWAP1 PUSH1 0x0 MSTORE PUSH1 0x20 PUSH1 0x0 KECCAK256 SWAP1 JUMPDEST DUP2 SLOAD DUP2 MSTORE SWAP1 PUSH1 0x1 ADD SWAP1 PUSH1 0x20 ADD DUP1 DUP4 GT PUSH2 0x1706 JUMPI DUP3 SWAP1 SUB PUSH1 0x1F AND DUP3 ADD SWAP2 JUMPDEST POP POP POP POP POP DUP7 PUSH1 0x6 ADD DUP6 DUP2 SLOAD DUP2 LT PUSH2 0x1737 JUMPI INVALID JUMPDEST PUSH1 0x0 SWAP2 DUP3 MSTORE PUSH1 0x20 SWAP2 DUP3 SWAP1 KECCAK256 ADD DUP1 SLOAD PUSH1 0x40 DUP1 MLOAD PUSH1 0x1F PUSH1 0x2 PUSH32 0xFFFFFFFFFFFFFFFFFFFFFFFFFFFFFFFFFFFFFFFFFFFFFFFFFFFFFFFFFFFFFFFF PUSH2 0x100 PUSH1 0x1 DUP8 AND ISZERO MUL ADD SWAP1 SWAP5 AND SWAP4 SWAP1 SWAP4 DIV SWAP3 DUP4 ADD DUP6 SWAP1 DIV DUP6 MUL DUP2 ADD DUP6 ADD SWAP1 SWAP2 MSTORE DUP2 DUP2 MSTORE SWAP3 DUP4 ADD DUP3 DUP3 DUP1 ISZERO PUSH2 0x17E3 JUMPI DUP1 PUSH1 0x1F LT PUSH2 0x17B8 JUMPI PUSH2 0x100 DUP1 DUP4 SLOAD DIV MUL DUP4 MSTORE SWAP2 PUSH1 0x20 ADD SWAP2 PUSH2 0x17E3 JUMP JUMPDEST DUP3 ADD SWAP2 SWAP1 PUSH1 0x0 MSTORE PUSH1 0x20 PUSH1 0x0 KECCAK256 SWAP1 JUMPDEST DUP2 SLOAD DUP2 MSTORE SWAP1 PUSH1 0x1 ADD SWAP1 PUSH1 0x20 ADD DUP1 DUP4 GT PUSH2 0x17C6 JUMPI DUP3 SWAP1 SUB PUSH1 0x1F AND DUP3 ADD SWAP2 JUMPDEST POP POP POP POP POP DUP7 PUSH2 0x1E24 JUMP JUMPDEST PUSH1 0x1 ADD PUSH2 0x160A JUMP JUMPDEST POP PUSH1 0x2 DUP3 ADD DUP2 SWAP1 SSTORE PUSH1 0x40 MLOAD PUSH32 0x9A2E42FD6722813D69113E7D0079D3D940171428DF7373DF9C7F7617CFDA2892 SWAP1 PUSH2 0xE03 SWAP1 DUP6 SWAP1 DUP5 SWAP1 PUSH2 0x3980 JUMP JUMPDEST PUSH1 0x40 MLOAD PUSH2 0x685 SWAP1 PUSH2 0x3506 JUMP JUMPDEST PUSH2 0x1844 PUSH2 0x21D5 JUMP JUMPDEST POP PUSH1 0x0 DUP3 DUP2 MSTORE PUSH1 0x3 PUSH1 0x20 SWAP1 DUP2 MSTORE PUSH1 0x40 DUP1 DUP4 KECCAK256 PUSH20 0xFFFFFFFFFFFFFFFFFFFFFFFFFFFFFFFFFFFFFFFF DUP6 AND DUP5 MSTORE PUSH1 0xC ADD DUP3 MSTORE SWAP2 DUP3 SWAP1 KECCAK256 DUP3 MLOAD PUSH1 0x60 DUP2 ADD DUP5 MSTORE SWAP1 SLOAD PUSH1 0xFF DUP1 DUP3 AND ISZERO ISZERO DUP4 MSTORE PUSH2 0x100 DUP3 DIV AND ISZERO ISZERO SWAP3 DUP3 ADD SWAP3 SWAP1 SWAP3 MSTORE PUSH3 0x10000 SWAP1 SWAP2 DIV PUSH12 0xFFFFFFFFFFFFFFFFFFFFFFFF AND SWAP2 DUP2 ADD SWAP2 SWAP1 SWAP2 MSTORE JUMPDEST SWAP3 SWAP2 POP POP JUMP JUMPDEST PUSH1 0x1 SLOAD PUSH20 0xFFFFFFFFFFFFFFFFFFFFFFFFFFFFFFFFFFFFFFFF AND DUP2 JUMP JUMPDEST PUSH1 0x5 PUSH2 0x18E4 DUP3 PUSH2 0x97C JUMP JUMPDEST PUSH1 0x7 DUP2 GT ISZERO PUSH2 0x18EF JUMPI INVALID JUMPDEST EQ PUSH2 0x1926 JUMPI PUSH1 0x40 MLOAD PUSH32 0x8C379A000000000000000000000000000000000000000000000000000000000 DUP2 MSTORE PUSH1 0x4 ADD PUSH2 0x641 SWAP1 PUSH2 0x3734 JUMP JUMPDEST PUSH1 0x0 DUP2 DUP2 MSTORE PUSH1 0x3 PUSH1 0x20 MSTORE PUSH1 0x40 DUP2 KECCAK256 PUSH1 0xB DUP2 ADD DUP1 SLOAD PUSH32 0xFFFFFFFFFFFFFFFFFFFFFFFFFFFFFFFFFFFFFFFFFFFFFFFFFFFFFFFFFFFF00FF AND PUSH2 0x100 OR SWAP1 SSTORE SWAP1 JUMPDEST PUSH1 0x3 DUP3 ADD SLOAD DUP2 LT ISZERO PUSH2 0x1AD1 JUMPI PUSH1 0x0 SLOAD PUSH1 0x4 DUP4 ADD DUP1 SLOAD PUSH20 0xFFFFFFFFFFFFFFFFFFFFFFFFFFFFFFFFFFFFFFFF SWAP1 SWAP3 AND SWAP2 PUSH4 0x825F38F SWAP2 SWAP1 DUP5 SWAP1 DUP2 LT PUSH2 0x19A3 JUMPI INVALID JUMPDEST SWAP1 PUSH1 0x0 MSTORE PUSH1 0x20 PUSH1 0x0 KECCAK256 ADD SLOAD DUP5 PUSH1 0x3 ADD DUP5 DUP2 SLOAD DUP2 LT PUSH2 0x19BD JUMPI INVALID JUMPDEST PUSH1 0x0 SWAP2 DUP3 MSTORE PUSH1 0x20 SWAP1 SWAP2 KECCAK256 ADD SLOAD PUSH1 0x4 DUP7 ADD DUP1 SLOAD PUSH20 0xFFFFFFFFFFFFFFFFFFFFFFFFFFFFFFFFFFFFFFFF SWAP1 SWAP3 AND SWAP2 DUP7 SWAP1 DUP2 LT PUSH2 0x19F2 JUMPI INVALID JUMPDEST SWAP1 PUSH1 0x0 MSTORE PUSH1 0x20 PUSH1 0x0 KECCAK256 ADD SLOAD DUP7 PUSH1 0x5 ADD DUP7 DUP2 SLOAD DUP2 LT PUSH2 0x1A0C JUMPI INVALID JUMPDEST SWAP1 PUSH1 0x0 MSTORE PUSH1 0x20 PUSH1 0x0 KECCAK256 ADD DUP8 PUSH1 0x6 ADD DUP8 DUP2 SLOAD DUP2 LT PUSH2 0x1A25 JUMPI INVALID JUMPDEST SWAP1 PUSH1 0x0 MSTORE PUSH1 0x20 PUSH1 0x0 KECCAK256 ADD DUP9 PUSH1 0x2 ADD SLOAD PUSH1 0x40 MLOAD DUP8 PUSH4 0xFFFFFFFF AND PUSH1 0xE0 SHL DUP2 MSTORE PUSH1 0x4 ADD PUSH2 0x1A54 SWAP6 SWAP5 SWAP4 SWAP3 SWAP2 SWAP1 PUSH2 0x35C9 JUMP JUMPDEST PUSH1 0x0 PUSH1 0x40 MLOAD DUP1 DUP4 SUB DUP2 DUP6 DUP9 DUP1 EXTCODESIZE ISZERO DUP1 ISZERO PUSH2 0x1A6D JUMPI PUSH1 0x0 DUP1 REVERT JUMPDEST POP GAS CALL ISZERO DUP1 ISZERO PUSH2 0x1A81 JUMPI RETURNDATASIZE PUSH1 0x0 DUP1 RETURNDATACOPY RETURNDATASIZE PUSH1 0x0 REVERT JUMPDEST POP POP POP POP POP PUSH1 0x40 MLOAD RETURNDATASIZE PUSH1 0x0 DUP3 RETURNDATACOPY PUSH1 0x1F RETURNDATASIZE SWAP1 DUP2 ADD PUSH32 0xFFFFFFFFFFFFFFFFFFFFFFFFFFFFFFFFFFFFFFFFFFFFFFFFFFFFFFFFFFFFFFE0 AND DUP3 ADD PUSH1 0x40 MSTORE PUSH2 0x1AC8 SWAP2 SWAP1 DUP2 ADD SWAP1 PUSH2 0x2827 JUMP JUMPDEST POP PUSH1 0x1 ADD PUSH2 0x1964 JUMP JUMPDEST POP PUSH32 0x712AE1383F79AC853F8D882153778E0260EF8F03B504E2866E0593E04D2B291F DUP3 PUSH1 0x40 MLOAD PUSH2 0x1B01 SWAP2 SWAP1 PUSH2 0x3657 JUMP JUMPDEST PUSH1 0x40 MLOAD DUP1 SWAP2 SUB SWAP1 LOG1 POP POP JUMP JUMPDEST PUSH1 0x1 PUSH2 0x1B18 DUP4 PUSH2 0x97C JUMP JUMPDEST PUSH1 0x7 DUP2 GT ISZERO PUSH2 0x1B23 JUMPI INVALID JUMPDEST EQ PUSH2 0x1B5A JUMPI PUSH1 0x40 MLOAD PUSH32 0x8C379A000000000000000000000000000000000000000000000000000000000 DUP2 MSTORE PUSH1 0x4 ADD PUSH2 0x641 SWAP1 PUSH2 0x3824 JUMP JUMPDEST PUSH1 0x0 DUP3 DUP2 MSTORE PUSH1 0x3 PUSH1 0x20 SWAP1 DUP2 MSTORE PUSH1 0x40 DUP1 DUP4 KECCAK256 PUSH20 0xFFFFFFFFFFFFFFFFFFFFFFFFFFFFFFFFFFFFFFFF DUP8 AND DUP5 MSTORE PUSH1 0xC DUP2 ADD SWAP1 SWAP3 MSTORE SWAP1 SWAP2 KECCAK256 DUP1 SLOAD PUSH1 0xFF AND ISZERO PUSH2 0x1BCA JUMPI PUSH1 0x40 MLOAD PUSH32 0x8C379A000000000000000000000000000000000000000000000000000000000 DUP2 MSTORE PUSH1 0x4 ADD PUSH2 0x641 SWAP1 PUSH2 0x3754 JUMP JUMPDEST PUSH1 0x1 SLOAD PUSH1 0x7 DUP4 ADD SLOAD PUSH1 0x40 MLOAD PUSH32 0x782D6FE100000000000000000000000000000000000000000000000000000000 DUP2 MSTORE PUSH1 0x0 SWAP3 PUSH20 0xFFFFFFFFFFFFFFFFFFFFFFFFFFFFFFFFFFFFFFFF AND SWAP2 PUSH4 0x782D6FE1 SWAP2 PUSH2 0x1C26 SWAP2 DUP11 SWAP2 PUSH1 0x4 ADD PUSH2 0x352C JUMP JUMPDEST PUSH1 0x20 PUSH1 0x40 MLOAD DUP1 DUP4 SUB DUP2 DUP7 DUP1 EXTCODESIZE ISZERO DUP1 ISZERO PUSH2 0x1C3E JUMPI PUSH1 0x0 DUP1 REVERT JUMPDEST POP GAS STATICCALL ISZERO DUP1 ISZERO PUSH2 0x1C52 JUMPI RETURNDATASIZE PUSH1 0x0 DUP1 RETURNDATACOPY RETURNDATASIZE PUSH1 0x0 REVERT JUMPDEST POP POP POP POP PUSH1 0x40 MLOAD RETURNDATASIZE PUSH1 0x1F NOT PUSH1 0x1F DUP3 ADD AND DUP3 ADD DUP1 PUSH1 0x40 MSTORE POP PUSH2 0x1C76 SWAP2 SWAP1 DUP2 ADD SWAP1 PUSH2 0x291C JUMP JUMPDEST SWAP1 POP DUP4 ISZERO PUSH2 0x1CA4 JUMPI PUSH2 0x1C9A DUP4 PUSH1 0x9 ADD SLOAD DUP3 PUSH12 0xFFFFFFFFFFFFFFFFFFFFFFFF AND PUSH2 0x1D98 JUMP JUMPDEST PUSH1 0x9 DUP5 ADD SSTORE PUSH2 0x1CC6 JUMP JUMPDEST PUSH2 0x1CC0 DUP4 PUSH1 0xA ADD SLOAD DUP3 PUSH12 0xFFFFFFFFFFFFFFFFFFFFFFFF AND PUSH2 0x1D98 JUMP JUMPDEST PUSH1 0xA DUP5 ADD SSTORE JUMPDEST DUP2 SLOAD PUSH1 0x1 PUSH32 0xFFFFFFFFFFFFFFFFFFFFFFFFFFFFFFFFFFFFFFFFFFFFFFFFFFFFFFFFFFFFFF00 SWAP1 SWAP2 AND OR PUSH32 0xFFFFFFFFFFFFFFFFFFFFFFFFFFFFFFFFFFFFFFFFFFFFFFFFFFFFFFFFFFFF00FF AND PUSH2 0x100 DUP6 ISZERO ISZERO MUL OR PUSH32 0xFFFFFFFFFFFFFFFFFFFFFFFFFFFFFFFFFFFF000000000000000000000000FFFF AND PUSH3 0x10000 PUSH12 0xFFFFFFFFFFFFFFFFFFFFFFFF DUP4 AND MUL OR DUP3 SSTORE PUSH1 0x40 MLOAD PUSH32 0x877856338E13F63D0C36822FF0EF736B80934CD90574A3A5BC9262C39D217C46 SWAP1 PUSH2 0x1D88 SWAP1 DUP9 SWAP1 DUP9 SWAP1 DUP9 SWAP1 DUP7 SWAP1 PUSH2 0x353A JUMP JUMPDEST PUSH1 0x40 MLOAD DUP1 SWAP2 SUB SWAP1 LOG1 POP POP POP POP POP POP JUMP JUMPDEST PUSH1 0x0 DUP3 DUP3 ADD DUP4 DUP2 LT ISZERO PUSH2 0x1DD7 JUMPI PUSH1 0x40 MLOAD PUSH32 0x8C379A000000000000000000000000000000000000000000000000000000000 DUP2 MSTORE PUSH1 0x4 ADD PUSH2 0x641 SWAP1 PUSH2 0x3784 JUMP JUMPDEST SWAP4 SWAP3 POP POP POP JUMP JUMPDEST PUSH1 0x0 DUP3 DUP3 GT ISZERO PUSH2 0x1E1A JUMPI PUSH1 0x40 MLOAD PUSH32 0x8C379A000000000000000000000000000000000000000000000000000000000 DUP2 MSTORE PUSH1 0x4 ADD PUSH2 0x641 SWAP1 PUSH2 0x3834 JUMP JUMPDEST POP SWAP1 SUB SWAP1 JUMP JUMPDEST CHAINID SWAP1 JUMP JUMPDEST PUSH1 0x0 SLOAD PUSH1 0x40 MLOAD PUSH20 0xFFFFFFFFFFFFFFFFFFFFFFFFFFFFFFFFFFFFFFFF SWAP1 SWAP2 AND SWAP1 PUSH4 0xF2B06537 SWAP1 PUSH2 0x1E5F SWAP1 DUP9 SWAP1 DUP9 SWAP1 DUP9 SWAP1 DUP9 SWAP1 DUP9 SWAP1 PUSH1 0x20 ADD PUSH2 0x356F JUMP JUMPDEST PUSH1 0x40 MLOAD PUSH1 0x20 DUP2 DUP4 SUB SUB DUP2 MSTORE SWAP1 PUSH1 0x40 MSTORE DUP1 MLOAD SWAP1 PUSH1 0x20 ADD KECCAK256 PUSH1 0x40 MLOAD DUP3 PUSH4 0xFFFFFFFF AND PUSH1 0xE0 SHL DUP2 MSTORE PUSH1 0x4 ADD PUSH2 0x1E91 SWAP2 SWAP1 PUSH2 0x3657 JUMP JUMPDEST PUSH1 0x20 PUSH1 0x40 MLOAD DUP1 DUP4 SUB DUP2 DUP7 DUP1 EXTCODESIZE ISZERO DUP1 ISZERO PUSH2 0x1EA9 JUMPI PUSH1 0x0 DUP1 REVERT JUMPDEST POP GAS STATICCALL ISZERO DUP1 ISZERO PUSH2 0x1EBD JUMPI RETURNDATASIZE PUSH1 0x0 DUP1 RETURNDATACOPY RETURNDATASIZE PUSH1 0x0 REVERT JUMPDEST POP POP POP POP PUSH1 0x40 MLOAD RETURNDATASIZE PUSH1 0x1F NOT PUSH1 0x1F DUP3 ADD AND DUP3 ADD DUP1 PUSH1 0x40 MSTORE POP PUSH2 0x1EE1 SWAP2 SWAP1 DUP2 ADD SWAP1 PUSH2 0x27EB JUMP JUMPDEST ISZERO PUSH2 0x1F18 JUMPI PUSH1 0x40 MLOAD PUSH32 0x8C379A000000000000000000000000000000000000000000000000000000000 DUP2 MSTORE PUSH1 0x4 ADD PUSH2 0x641 SWAP1 PUSH2 0x37B4 JUMP JUMPDEST PUSH1 0x0 SLOAD PUSH1 0x40 MLOAD PUSH32 0x3A66F90100000000000000000000000000000000000000000000000000000000 DUP2 MSTORE PUSH20 0xFFFFFFFFFFFFFFFFFFFFFFFFFFFFFFFFFFFFFFFF SWAP1 SWAP2 AND SWAP1 PUSH4 0x3A66F901 SWAP1 PUSH2 0x1F76 SWAP1 DUP9 SWAP1 DUP9 SWAP1 DUP9 SWAP1 DUP9 SWAP1 DUP9 SWAP1 PUSH1 0x4 ADD PUSH2 0x356F JUMP JUMPDEST PUSH1 0x20 PUSH1 0x40 MLOAD DUP1 DUP4 SUB DUP2 PUSH1 0x0 DUP8 DUP1 EXTCODESIZE ISZERO DUP1 ISZERO PUSH2 0x1F90 JUMPI PUSH1 0x0 DUP1 REVERT JUMPDEST POP GAS CALL ISZERO DUP1 ISZERO PUSH2 0x1FA4 JUMPI RETURNDATASIZE PUSH1 0x0 DUP1 RETURNDATACOPY RETURNDATASIZE PUSH1 0x0 REVERT JUMPDEST POP POP POP POP PUSH1 0x40 MLOAD RETURNDATASIZE PUSH1 0x1F NOT PUSH1 0x1F DUP3 ADD AND DUP3 ADD DUP1 PUSH1 0x40 MSTORE POP PUSH2 0x1FC8 SWAP2 SWAP1 DUP2 ADD SWAP1 PUSH2 0x2809 JUMP JUMPDEST POP POP POP POP POP POP JUMP JUMPDEST PUSH1 0x40 MLOAD DUP1 PUSH2 0x1A0 ADD PUSH1 0x40 MSTORE DUP1 PUSH1 0x0 DUP2 MSTORE PUSH1 0x20 ADD PUSH1 0x0 PUSH20 0xFFFFFFFFFFFFFFFFFFFFFFFFFFFFFFFFFFFFFFFF AND DUP2 MSTORE PUSH1 0x20 ADD PUSH1 0x0 DUP2 MSTORE PUSH1 0x20 ADD PUSH1 0x60 DUP2 MSTORE PUSH1 0x20 ADD PUSH1 0x60 DUP2 MSTORE PUSH1 0x20 ADD PUSH1 0x60 DUP2 MSTORE PUSH1 0x20 ADD PUSH1 0x60 DUP2 MSTORE PUSH1 0x20 ADD PUSH1 0x0 DUP2 MSTORE PUSH1 0x20 ADD PUSH1 0x0 DUP2 MSTORE PUSH1 0x20 ADD PUSH1 0x0 DUP2 MSTORE PUSH1 0x20 ADD PUSH1 0x0 DUP2 MSTORE PUSH1 0x20 ADD PUSH1 0x0 ISZERO ISZERO DUP2 MSTORE PUSH1 0x20 ADD PUSH1 0x0 ISZERO ISZERO DUP2 MSTORE POP SWAP1 JUMP JUMPDEST DUP3 DUP1 SLOAD DUP3 DUP3 SSTORE SWAP1 PUSH1 0x0 MSTORE PUSH1 0x20 PUSH1 0x0 KECCAK256 SWAP1 DUP2 ADD SWAP3 DUP3 ISZERO PUSH2 0x20CC JUMPI SWAP2 PUSH1 0x20 MUL DUP3 ADD JUMPDEST DUP3 DUP2 GT ISZERO PUSH2 0x20CC JUMPI DUP3 MLOAD DUP3 SLOAD PUSH32 0xFFFFFFFFFFFFFFFFFFFFFFFF0000000000000000000000000000000000000000 AND PUSH20 0xFFFFFFFFFFFFFFFFFFFFFFFFFFFFFFFFFFFFFFFF SWAP1 SWAP2 AND OR DUP3 SSTORE PUSH1 0x20 SWAP1 SWAP3 ADD SWAP2 PUSH1 0x1 SWAP1 SWAP2 ADD SWAP1 PUSH2 0x2072 JUMP JUMPDEST POP PUSH2 0x20D8 SWAP3 SWAP2 POP PUSH2 0x21F5 JUMP JUMPDEST POP SWAP1 JUMP JUMPDEST DUP3 DUP1 SLOAD DUP3 DUP3 SSTORE SWAP1 PUSH1 0x0 MSTORE PUSH1 0x20 PUSH1 0x0 KECCAK256 SWAP1 DUP2 ADD SWAP3 DUP3 ISZERO PUSH2 0x2117 JUMPI SWAP2 PUSH1 0x20 MUL DUP3 ADD JUMPDEST DUP3 DUP2 GT ISZERO PUSH2 0x2117 JUMPI DUP3 MLOAD DUP3 SSTORE SWAP2 PUSH1 0x20 ADD SWAP2 SWAP1 PUSH1 0x1 ADD SWAP1 PUSH2 0x20FC JUMP JUMPDEST POP PUSH2 0x20D8 SWAP3 SWAP2 POP PUSH2 0x2231 JUMP JUMPDEST DUP3 DUP1 SLOAD DUP3 DUP3 SSTORE SWAP1 PUSH1 0x0 MSTORE PUSH1 0x20 PUSH1 0x0 KECCAK256 SWAP1 DUP2 ADD SWAP3 DUP3 ISZERO PUSH2 0x2170 JUMPI SWAP2 PUSH1 0x20 MUL DUP3 ADD JUMPDEST DUP3 DUP2 GT ISZERO PUSH2 0x2170 JUMPI DUP3 MLOAD DUP1 MLOAD PUSH2 0x2160 SWAP2 DUP5 SWAP2 PUSH1 0x20 SWAP1 SWAP2 ADD SWAP1 PUSH2 0x224B JUMP JUMPDEST POP SWAP2 PUSH1 0x20 ADD SWAP2 SWAP1 PUSH1 0x1 ADD SWAP1 PUSH2 0x2143 JUMP JUMPDEST POP PUSH2 0x20D8 SWAP3 SWAP2 POP PUSH2 0x22B8 JUMP JUMPDEST DUP3 DUP1 SLOAD DUP3 DUP3 SSTORE SWAP1 PUSH1 0x0 MSTORE PUSH1 0x20 PUSH1 0x0 KECCAK256 SWAP1 DUP2 ADD SWAP3 DUP3 ISZERO PUSH2 0x21C9 JUMPI SWAP2 PUSH1 0x20 MUL DUP3 ADD JUMPDEST DUP3 DUP2 GT ISZERO PUSH2 0x21C9 JUMPI DUP3 MLOAD DUP1 MLOAD PUSH2 0x21B9 SWAP2 DUP5 SWAP2 PUSH1 0x20 SWAP1 SWAP2 ADD SWAP1 PUSH2 0x224B JUMP JUMPDEST POP SWAP2 PUSH1 0x20 ADD SWAP2 SWAP1 PUSH1 0x1 ADD SWAP1 PUSH2 0x219C JUMP JUMPDEST POP PUSH2 0x20D8 SWAP3 SWAP2 POP PUSH2 0x22DB JUMP JUMPDEST PUSH1 0x40 DUP1 MLOAD PUSH1 0x60 DUP2 ADD DUP3 MSTORE PUSH1 0x0 DUP1 DUP3 MSTORE PUSH1 0x20 DUP3 ADD DUP2 SWAP1 MSTORE SWAP2 DUP2 ADD SWAP2 SWAP1 SWAP2 MSTORE SWAP1 JUMP JUMPDEST PUSH2 0x4AD SWAP2 SWAP1 JUMPDEST DUP1 DUP3 GT ISZERO PUSH2 0x20D8 JUMPI DUP1 SLOAD PUSH32 0xFFFFFFFFFFFFFFFFFFFFFFFF0000000000000000000000000000000000000000 AND DUP2 SSTORE PUSH1 0x1 ADD PUSH2 0x21FB JUMP JUMPDEST PUSH2 0x4AD SWAP2 SWAP1 JUMPDEST DUP1 DUP3 GT ISZERO PUSH2 0x20D8 JUMPI PUSH1 0x0 DUP2 SSTORE PUSH1 0x1 ADD PUSH2 0x2237 JUMP JUMPDEST DUP3 DUP1 SLOAD PUSH1 0x1 DUP2 PUSH1 0x1 AND ISZERO PUSH2 0x100 MUL SUB AND PUSH1 0x2 SWAP1 DIV SWAP1 PUSH1 0x0 MSTORE PUSH1 0x20 PUSH1 0x0 KECCAK256 SWAP1 PUSH1 0x1F ADD PUSH1 0x20 SWAP1 DIV DUP2 ADD SWAP3 DUP3 PUSH1 0x1F LT PUSH2 0x228C JUMPI DUP1 MLOAD PUSH1 0xFF NOT AND DUP4 DUP1 ADD OR DUP6 SSTORE PUSH2 0x2117 JUMP JUMPDEST DUP3 DUP1 ADD PUSH1 0x1 ADD DUP6 SSTORE DUP3 ISZERO PUSH2 0x2117 JUMPI SWAP2 DUP3 ADD DUP3 DUP2 GT ISZERO PUSH2 0x2117 JUMPI DUP3 MLOAD DUP3 SSTORE SWAP2 PUSH1 0x20 ADD SWAP2 SWAP1 PUSH1 0x1 ADD SWAP1 PUSH2 0x20FC JUMP JUMPDEST PUSH2 0x4AD SWAP2 SWAP1 JUMPDEST DUP1 DUP3 GT ISZERO PUSH2 0x20D8 JUMPI PUSH1 0x0 PUSH2 0x22D2 DUP3 DUP3 PUSH2 0x22FE JUMP JUMPDEST POP PUSH1 0x1 ADD PUSH2 0x22BE JUMP JUMPDEST PUSH2 0x4AD SWAP2 SWAP1 JUMPDEST DUP1 DUP3 GT ISZERO PUSH2 0x20D8 JUMPI PUSH1 0x0 PUSH2 0x22F5 DUP3 DUP3 PUSH2 0x22FE JUMP JUMPDEST POP PUSH1 0x1 ADD PUSH2 0x22E1 JUMP JUMPDEST POP DUP1 SLOAD PUSH1 0x1 DUP2 PUSH1 0x1 AND ISZERO PUSH2 0x100 MUL SUB AND PUSH1 0x2 SWAP1 DIV PUSH1 0x0 DUP3 SSTORE DUP1 PUSH1 0x1F LT PUSH2 0x2324 JUMPI POP PUSH2 0x2342 JUMP JUMPDEST PUSH1 0x1F ADD PUSH1 0x20 SWAP1 DIV SWAP1 PUSH1 0x0 MSTORE PUSH1 0x20 PUSH1 0x0 KECCAK256 SWAP1 DUP2 ADD SWAP1 PUSH2 0x2342 SWAP2 SWAP1 PUSH2 0x2231 JUMP JUMPDEST POP JUMP JUMPDEST DUP1 CALLDATALOAD PUSH2 0x18B7 DUP2 PUSH2 0x3B20 JUMP JUMPDEST PUSH1 0x0 DUP3 PUSH1 0x1F DUP4 ADD SLT PUSH2 0x2361 JUMPI PUSH1 0x0 DUP1 REVERT JUMPDEST DUP2 CALLDATALOAD PUSH2 0x2374 PUSH2 0x236F DUP3 PUSH2 0x39B5 JUMP JUMPDEST PUSH2 0x398E JUMP JUMPDEST SWAP2 POP DUP2 DUP2 DUP4 MSTORE PUSH1 0x20 DUP5 ADD SWAP4 POP PUSH1 0x20 DUP2 ADD SWAP1 POP DUP4 DUP6 PUSH1 0x20 DUP5 MUL DUP3 ADD GT ISZERO PUSH2 0x2399 JUMPI PUSH1 0x0 DUP1 REVERT JUMPDEST PUSH1 0x0 JUMPDEST DUP4 DUP2 LT ISZERO PUSH2 0x23C5 JUMPI DUP2 PUSH2 0x23AF DUP9 DUP3 PUSH2 0x2345 JUMP JUMPDEST DUP5 MSTORE POP PUSH1 0x20 SWAP3 DUP4 ADD SWAP3 SWAP2 SWAP1 SWAP2 ADD SWAP1 PUSH1 0x1 ADD PUSH2 0x239C JUMP JUMPDEST POP POP POP POP SWAP3 SWAP2 POP POP JUMP JUMPDEST PUSH1 0x0 DUP3 PUSH1 0x1F DUP4 ADD SLT PUSH2 0x23E0 JUMPI PUSH1 0x0 DUP1 REVERT JUMPDEST DUP2 CALLDATALOAD PUSH2 0x23EE PUSH2 0x236F DUP3 PUSH2 0x39B5 JUMP JUMPDEST DUP2 DUP2 MSTORE PUSH1 0x20 SWAP4 DUP5 ADD SWAP4 SWAP1 SWAP3 POP DUP3 ADD DUP4 PUSH1 0x0 JUMPDEST DUP4 DUP2 LT ISZERO PUSH2 0x23C5 JUMPI DUP2 CALLDATALOAD DUP7 ADD PUSH2 0x2416 DUP9 DUP3 PUSH2 0x256E JUMP JUMPDEST DUP5 MSTORE POP PUSH1 0x20 SWAP3 DUP4 ADD SWAP3 SWAP2 SWAP1 SWAP2 ADD SWAP1 PUSH1 0x1 ADD PUSH2 0x2400 JUMP JUMPDEST PUSH1 0x0 DUP3 PUSH1 0x1F DUP4 ADD SLT PUSH2 0x243D JUMPI PUSH1 0x0 DUP1 REVERT JUMPDEST DUP2 CALLDATALOAD PUSH2 0x244B PUSH2 0x236F DUP3 PUSH2 0x39B5 JUMP JUMPDEST DUP2 DUP2 MSTORE PUSH1 0x20 SWAP4 DUP5 ADD SWAP4 SWAP1 SWAP3 POP DUP3 ADD DUP4 PUSH1 0x0 JUMPDEST DUP4 DUP2 LT ISZERO PUSH2 0x23C5 JUMPI DUP2 CALLDATALOAD DUP7 ADD PUSH2 0x2473 DUP9 DUP3 PUSH2 0x256E JUMP JUMPDEST DUP5 MSTORE POP PUSH1 0x20 SWAP3 DUP4 ADD SWAP3 SWAP2 SWAP1 SWAP2 ADD SWAP1 PUSH1 0x1 ADD PUSH2 0x245D JUMP JUMPDEST PUSH1 0x0 DUP3 PUSH1 0x1F DUP4 ADD SLT PUSH2 0x249A JUMPI PUSH1 0x0 DUP1 REVERT JUMPDEST DUP2 CALLDATALOAD PUSH2 0x24A8 PUSH2 0x236F DUP3 PUSH2 0x39B5 JUMP JUMPDEST SWAP2 POP DUP2 DUP2 DUP4 MSTORE PUSH1 0x20 DUP5 ADD SWAP4 POP PUSH1 0x20 DUP2 ADD SWAP1 POP DUP4 DUP6 PUSH1 0x20 DUP5 MUL DUP3 ADD GT ISZERO PUSH2 0x24CD JUMPI PUSH1 0x0 DUP1 REVERT JUMPDEST PUSH1 0x0 JUMPDEST DUP4 DUP2 LT ISZERO PUSH2 0x23C5 JUMPI DUP2 PUSH2 0x24E3 DUP9 DUP3 PUSH2 0x250F JUMP JUMPDEST DUP5 MSTORE POP PUSH1 0x20 SWAP3 DUP4 ADD SWAP3 SWAP2 SWAP1 SWAP2 ADD SWAP1 PUSH1 0x1 ADD PUSH2 0x24D0 JUMP JUMPDEST DUP1 CALLDATALOAD PUSH2 0x18B7 DUP2 PUSH2 0x3B34 JUMP JUMPDEST DUP1 MLOAD PUSH2 0x18B7 DUP2 PUSH2 0x3B34 JUMP JUMPDEST DUP1 CALLDATALOAD PUSH2 0x18B7 DUP2 PUSH2 0x3B3D JUMP JUMPDEST DUP1 MLOAD PUSH2 0x18B7 DUP2 PUSH2 0x3B3D JUMP JUMPDEST PUSH1 0x0 DUP1 DUP4 PUSH1 0x1F DUP5 ADD SLT PUSH2 0x2537 JUMPI PUSH1 0x0 DUP1 REVERT JUMPDEST POP DUP2 CALLDATALOAD PUSH8 0xFFFFFFFFFFFFFFFF DUP2 GT ISZERO PUSH2 0x254F JUMPI PUSH1 0x0 DUP1 REVERT JUMPDEST PUSH1 0x20 DUP4 ADD SWAP2 POP DUP4 PUSH1 0x1 DUP3 MUL DUP4 ADD GT ISZERO PUSH2 0x2567 JUMPI PUSH1 0x0 DUP1 REVERT JUMPDEST SWAP3 POP SWAP3 SWAP1 POP JUMP JUMPDEST PUSH1 0x0 DUP3 PUSH1 0x1F DUP4 ADD SLT PUSH2 0x257F JUMPI PUSH1 0x0 DUP1 REVERT JUMPDEST DUP2 CALLDATALOAD PUSH2 0x258D PUSH2 0x236F DUP3 PUSH2 0x39D6 JUMP JUMPDEST SWAP2 POP DUP1 DUP3 MSTORE PUSH1 0x20 DUP4 ADD PUSH1 0x20 DUP4 ADD DUP6 DUP4 DUP4 ADD GT ISZERO PUSH2 0x25A9 JUMPI PUSH1 0x0 DUP1 REVERT JUMPDEST PUSH2 0x25B4 DUP4 DUP3 DUP5 PUSH2 0x3AB6 JUMP JUMPDEST POP POP POP SWAP3 SWAP2 POP POP JUMP JUMPDEST PUSH1 0x0 DUP3 PUSH1 0x1F DUP4 ADD SLT PUSH2 0x25CE JUMPI PUSH1 0x0 DUP1 REVERT JUMPDEST DUP2 MLOAD PUSH2 0x25DC PUSH2 0x236F DUP3 PUSH2 0x39D6 JUMP JUMPDEST SWAP2 POP DUP1 DUP3 MSTORE PUSH1 0x20 DUP4 ADD PUSH1 0x20 DUP4 ADD DUP6 DUP4 DUP4 ADD GT ISZERO PUSH2 0x25F8 JUMPI PUSH1 0x0 DUP1 REVERT JUMPDEST PUSH2 0x25B4 DUP4 DUP3 DUP5 PUSH2 0x3AC2 JUMP JUMPDEST DUP1 CALLDATALOAD PUSH2 0x18B7 DUP2 PUSH2 0x3B46 JUMP JUMPDEST DUP1 CALLDATALOAD PUSH2 0x18B7 DUP2 PUSH2 0x3B4F JUMP JUMPDEST DUP1 MLOAD PUSH2 0x18B7 DUP2 PUSH2 0x3B58 JUMP JUMPDEST PUSH1 0x0 PUSH1 0x20 DUP3 DUP5 SUB SLT ISZERO PUSH2 0x2636 JUMPI PUSH1 0x0 DUP1 REVERT JUMPDEST PUSH1 0x0 PUSH2 0x2642 DUP5 DUP5 PUSH2 0x2345 JUMP JUMPDEST SWAP5 SWAP4 POP POP POP POP JUMP JUMPDEST PUSH1 0x0 DUP1 PUSH1 0x0 PUSH1 0x60 DUP5 DUP7 SUB SLT ISZERO PUSH2 0x265F JUMPI PUSH1 0x0 DUP1 REVERT JUMPDEST PUSH1 0x0 PUSH2 0x266B DUP7 DUP7 PUSH2 0x2345 JUMP JUMPDEST SWAP4 POP POP PUSH1 0x20 PUSH2 0x267C DUP7 DUP3 DUP8 ADD PUSH2 0x250F JUMP JUMPDEST SWAP3 POP POP PUSH1 0x40 PUSH2 0x268D DUP7 DUP3 DUP8 ADD PUSH2 0x24F9 JUMP JUMPDEST SWAP2 POP POP SWAP3 POP SWAP3 POP SWAP3 JUMP JUMPDEST PUSH1 0x0 DUP1 PUSH1 0x0 DUP1 PUSH1 0x60 DUP6 DUP8 SUB SLT ISZERO PUSH2 0x26AD JUMPI PUSH1 0x0 DUP1 REVERT JUMPDEST PUSH1 0x0 PUSH2 0x26B9 DUP8 DUP8 PUSH2 0x2345 JUMP JUMPDEST SWAP5 POP POP PUSH1 0x20 PUSH2 0x26CA DUP8 DUP3 DUP9 ADD PUSH2 0x2603 JUMP JUMPDEST SWAP4 POP POP PUSH1 0x40 DUP6 ADD CALLDATALOAD PUSH8 0xFFFFFFFFFFFFFFFF DUP2 GT ISZERO PUSH2 0x26E7 JUMPI PUSH1 0x0 DUP1 REVERT JUMPDEST PUSH2 0x26F3 DUP8 DUP3 DUP9 ADD PUSH2 0x2525 JUMP JUMPDEST SWAP6 SWAP9 SWAP5 SWAP8 POP SWAP6 POP POP POP POP JUMP JUMPDEST PUSH1 0x0 DUP1 PUSH1 0x0 DUP1 PUSH1 0x0 PUSH1 0xA0 DUP7 DUP9 SUB SLT ISZERO PUSH2 0x2717 JUMPI PUSH1 0x0 DUP1 REVERT JUMPDEST DUP6 CALLDATALOAD PUSH8 0xFFFFFFFFFFFFFFFF DUP2 GT ISZERO PUSH2 0x272E JUMPI PUSH1 0x0 DUP1 REVERT JUMPDEST PUSH2 0x273A DUP9 DUP3 DUP10 ADD PUSH2 0x2350 JUMP JUMPDEST SWAP6 POP POP PUSH1 0x20 DUP7 ADD CALLDATALOAD PUSH8 0xFFFFFFFFFFFFFFFF DUP2 GT ISZERO PUSH2 0x2757 JUMPI PUSH1 0x0 DUP1 REVERT JUMPDEST PUSH2 0x2763 DUP9 DUP3 DUP10 ADD PUSH2 0x2489 JUMP JUMPDEST SWAP5 POP POP PUSH1 0x40 DUP7 ADD CALLDATALOAD PUSH8 0xFFFFFFFFFFFFFFFF DUP2 GT ISZERO PUSH2 0x2780 JUMPI PUSH1 0x0 DUP1 REVERT JUMPDEST PUSH2 0x278C DUP9 DUP3 DUP10 ADD PUSH2 0x242C JUMP JUMPDEST SWAP4 POP POP PUSH1 0x60 DUP7 ADD CALLDATALOAD PUSH8 0xFFFFFFFFFFFFFFFF DUP2 GT ISZERO PUSH2 0x27A9 JUMPI PUSH1 0x0 DUP1 REVERT JUMPDEST PUSH2 0x27B5 DUP9 DUP3 DUP10 ADD PUSH2 0x23CF JUMP JUMPDEST SWAP3 POP POP PUSH1 0x80 DUP7 ADD CALLDATALOAD PUSH8 0xFFFFFFFFFFFFFFFF DUP2 GT ISZERO PUSH2 0x27D2 JUMPI PUSH1 0x0 DUP1 REVERT JUMPDEST PUSH2 0x27DE DUP9 DUP3 DUP10 ADD PUSH2 0x256E JUMP JUMPDEST SWAP2 POP POP SWAP3 SWAP6 POP SWAP3 SWAP6 SWAP1 SWAP4 POP JUMP JUMPDEST PUSH1 0x0 PUSH1 0x20 DUP3 DUP5 SUB SLT ISZERO PUSH2 0x27FD JUMPI PUSH1 0x0 DUP1 REVERT JUMPDEST PUSH1 0x0 PUSH2 0x2642 DUP5 DUP5 PUSH2 0x2504 JUMP JUMPDEST PUSH1 0x0 PUSH1 0x20 DUP3 DUP5 SUB SLT ISZERO PUSH2 0x281B JUMPI PUSH1 0x0 DUP1 REVERT JUMPDEST PUSH1 0x0 PUSH2 0x2642 DUP5 DUP5 PUSH2 0x251A JUMP JUMPDEST PUSH1 0x0 PUSH1 0x20 DUP3 DUP5 SUB SLT ISZERO PUSH2 0x2839 JUMPI PUSH1 0x0 DUP1 REVERT JUMPDEST DUP2 MLOAD PUSH8 0xFFFFFFFFFFFFFFFF DUP2 GT ISZERO PUSH2 0x2850 JUMPI PUSH1 0x0 DUP1 REVERT JUMPDEST PUSH2 0x2642 DUP5 DUP3 DUP6 ADD PUSH2 0x25BD JUMP JUMPDEST PUSH1 0x0 PUSH1 0x20 DUP3 DUP5 SUB SLT ISZERO PUSH2 0x286E JUMPI PUSH1 0x0 DUP1 REVERT JUMPDEST PUSH1 0x0 PUSH2 0x2642 DUP5 DUP5 PUSH2 0x250F JUMP JUMPDEST PUSH1 0x0 DUP1 PUSH1 0x40 DUP4 DUP6 SUB SLT ISZERO PUSH2 0x288D JUMPI PUSH1 0x0 DUP1 REVERT JUMPDEST PUSH1 0x0 PUSH2 0x2899 DUP6 DUP6 PUSH2 0x250F JUMP JUMPDEST SWAP3 POP POP PUSH1 0x20 PUSH2 0x28AA DUP6 DUP3 DUP7 ADD PUSH2 0x2345 JUMP JUMPDEST SWAP2 POP POP SWAP3 POP SWAP3 SWAP1 POP JUMP JUMPDEST PUSH1 0x0 DUP1 PUSH1 0x0 DUP1 PUSH1 0x0 PUSH1 0xA0 DUP7 DUP9 SUB SLT ISZERO PUSH2 0x28CC JUMPI PUSH1 0x0 DUP1 REVERT JUMPDEST PUSH1 0x0 PUSH2 0x28D8 DUP9 DUP9 PUSH2 0x250F JUMP JUMPDEST SWAP6 POP POP PUSH1 0x20 PUSH2 0x28E9 DUP9 DUP3 DUP10 ADD PUSH2 0x24F9 JUMP JUMPDEST SWAP5 POP POP PUSH1 0x40 PUSH2 0x28FA DUP9 DUP3 DUP10 ADD PUSH2 0x260E JUMP JUMPDEST SWAP4 POP POP PUSH1 0x60 PUSH2 0x290B DUP9 DUP3 DUP10 ADD PUSH2 0x250F JUMP JUMPDEST SWAP3 POP POP PUSH1 0x80 PUSH2 0x27DE DUP9 DUP3 DUP10 ADD PUSH2 0x250F JUMP JUMPDEST PUSH1 0x0 PUSH1 0x20 DUP3 DUP5 SUB SLT ISZERO PUSH2 0x292E JUMPI PUSH1 0x0 DUP1 REVERT JUMPDEST PUSH1 0x0 PUSH2 0x2642 DUP5 DUP5 PUSH2 0x2619 JUMP JUMPDEST PUSH1 0x0 PUSH2 0x2946 DUP4 DUP4 PUSH2 0x2975 JUMP JUMPDEST POP POP PUSH1 0x20 ADD SWAP1 JUMP JUMPDEST PUSH1 0x0 PUSH2 0x1DD7 DUP4 DUP4 PUSH2 0x2B36 JUMP JUMPDEST PUSH1 0x0 PUSH2 0x2946 DUP4 DUP4 PUSH2 0x2AFD JUMP JUMPDEST PUSH2 0x296F DUP2 PUSH2 0x3A8E JUMP JUMPDEST DUP3 MSTORE POP POP JUMP JUMPDEST PUSH2 0x296F DUP2 PUSH2 0x3A3B JUMP JUMPDEST PUSH1 0x0 PUSH2 0x2989 DUP3 PUSH2 0x3A2E JUMP JUMPDEST PUSH2 0x2993 DUP2 DUP6 PUSH2 0x3A32 JUMP JUMPDEST SWAP4 POP PUSH2 0x299E DUP4 PUSH2 0x3A1C JUMP JUMPDEST DUP1 PUSH1 0x0 JUMPDEST DUP4 DUP2 LT ISZERO PUSH2 0x29CC JUMPI DUP2 MLOAD PUSH2 0x29B6 DUP9 DUP3 PUSH2 0x293A JUMP JUMPDEST SWAP8 POP PUSH2 0x29C1 DUP4 PUSH2 0x3A1C JUMP JUMPDEST SWAP3 POP POP PUSH1 0x1 ADD PUSH2 0x29A2 JUMP JUMPDEST POP SWAP5 SWAP6 SWAP5 POP POP POP POP POP JUMP JUMPDEST PUSH1 0x0 PUSH2 0x29E2 DUP3 PUSH2 0x3A2E JUMP JUMPDEST PUSH2 0x29EC DUP2 DUP6 PUSH2 0x3A32 JUMP JUMPDEST SWAP4 POP DUP4 PUSH1 0x20 DUP3 MUL DUP6 ADD PUSH2 0x29FE DUP6 PUSH2 0x3A1C JUMP JUMPDEST DUP1 PUSH1 0x0 JUMPDEST DUP6 DUP2 LT ISZERO PUSH2 0x2A38 JUMPI DUP5 DUP5 SUB DUP10 MSTORE DUP2 MLOAD PUSH2 0x2A1B DUP6 DUP3 PUSH2 0x294E JUMP JUMPDEST SWAP5 POP PUSH2 0x2A26 DUP4 PUSH2 0x3A1C JUMP JUMPDEST PUSH1 0x20 SWAP11 SWAP1 SWAP11 ADD SWAP10 SWAP3 POP POP PUSH1 0x1 ADD PUSH2 0x2A02 JUMP JUMPDEST POP SWAP2 SWAP8 SWAP7 POP POP POP POP POP POP POP JUMP JUMPDEST PUSH1 0x0 PUSH2 0x2A50 DUP3 PUSH2 0x3A2E JUMP JUMPDEST PUSH2 0x2A5A DUP2 DUP6 PUSH2 0x3A32 JUMP JUMPDEST SWAP4 POP DUP4 PUSH1 0x20 DUP3 MUL DUP6 ADD PUSH2 0x2A6C DUP6 PUSH2 0x3A1C JUMP JUMPDEST DUP1 PUSH1 0x0 JUMPDEST DUP6 DUP2 LT ISZERO PUSH2 0x2A38 JUMPI DUP5 DUP5 SUB DUP10 MSTORE DUP2 MLOAD PUSH2 0x2A89 DUP6 DUP3 PUSH2 0x294E JUMP JUMPDEST SWAP5 POP PUSH2 0x2A94 DUP4 PUSH2 0x3A1C JUMP JUMPDEST PUSH1 0x20 SWAP11 SWAP1 SWAP11 ADD SWAP10 SWAP3 POP POP PUSH1 0x1 ADD PUSH2 0x2A70 JUMP JUMPDEST PUSH1 0x0 PUSH2 0x2AB1 DUP3 PUSH2 0x3A2E JUMP JUMPDEST PUSH2 0x2ABB DUP2 DUP6 PUSH2 0x3A32 JUMP JUMPDEST SWAP4 POP PUSH2 0x2AC6 DUP4 PUSH2 0x3A1C JUMP JUMPDEST DUP1 PUSH1 0x0 JUMPDEST DUP4 DUP2 LT ISZERO PUSH2 0x29CC JUMPI DUP2 MLOAD PUSH2 0x2ADE DUP9 DUP3 PUSH2 0x295A JUMP JUMPDEST SWAP8 POP PUSH2 0x2AE9 DUP4 PUSH2 0x3A1C JUMP JUMPDEST SWAP3 POP POP PUSH1 0x1 ADD PUSH2 0x2ACA JUMP JUMPDEST PUSH2 0x296F DUP2 PUSH2 0x3A46 JUMP JUMPDEST PUSH2 0x296F DUP2 PUSH2 0x4AD JUMP JUMPDEST PUSH2 0x296F PUSH2 0x2B12 DUP3 PUSH2 0x4AD JUMP JUMPDEST PUSH2 0x4AD JUMP JUMPDEST PUSH1 0x0 PUSH2 0x2B23 DUP4 DUP6 PUSH2 0xB39 JUMP JUMPDEST SWAP4 POP PUSH2 0x2B30 DUP4 DUP6 DUP5 PUSH2 0x3AB6 JUMP JUMPDEST POP POP ADD SWAP1 JUMP JUMPDEST PUSH1 0x0 PUSH2 0x2B41 DUP3 PUSH2 0x3A2E JUMP JUMPDEST PUSH2 0x2B4B DUP2 DUP6 PUSH2 0x3A32 JUMP JUMPDEST SWAP4 POP PUSH2 0x2B5B DUP2 DUP6 PUSH1 0x20 DUP7 ADD PUSH2 0x3AC2 JUMP JUMPDEST PUSH2 0x2B64 DUP2 PUSH2 0x3AEE JUMP JUMPDEST SWAP1 SWAP4 ADD SWAP4 SWAP3 POP POP POP JUMP JUMPDEST PUSH1 0x0 DUP2 SLOAD PUSH1 0x1 DUP2 AND PUSH1 0x0 DUP2 EQ PUSH2 0x2B8B JUMPI PUSH1 0x1 DUP2 EQ PUSH2 0x2BCF JUMPI PUSH2 0x2C0E JUMP JUMPDEST PUSH1 0x7F PUSH1 0x2 DUP4 DIV AND PUSH2 0x2B9C DUP2 DUP8 PUSH2 0x3A32 JUMP JUMPDEST PUSH32 0xFFFFFFFFFFFFFFFFFFFFFFFFFFFFFFFFFFFFFFFFFFFFFFFFFFFFFFFFFFFFFF00 DUP5 AND DUP2 MSTORE SWAP6 POP POP PUSH1 0x20 DUP6 ADD SWAP3 POP PUSH2 0x2C0E JUMP JUMPDEST PUSH1 0x2 DUP3 DIV PUSH2 0x2BDD DUP2 DUP8 PUSH2 0x3A32 JUMP JUMPDEST SWAP6 POP PUSH2 0x2BE8 DUP6 PUSH2 0x3A22 JUMP JUMPDEST PUSH1 0x0 JUMPDEST DUP3 DUP2 LT ISZERO PUSH2 0x2C07 JUMPI DUP2 SLOAD DUP9 DUP3 ADD MSTORE PUSH1 0x1 SWAP1 SWAP2 ADD SWAP1 PUSH1 0x20 ADD PUSH2 0x2BEB JUMP JUMPDEST DUP8 ADD SWAP5 POP POP POP JUMPDEST POP POP SWAP3 SWAP2 POP POP JUMP JUMPDEST PUSH2 0x296F DUP2 PUSH2 0x3A95 JUMP JUMPDEST PUSH2 0x296F DUP2 PUSH2 0x3AA0 JUMP JUMPDEST PUSH1 0x0 PUSH2 0x2C35 PUSH1 0x44 DUP4 PUSH2 0x3A32 JUMP JUMPDEST PUSH32 0x476F7665726E6F72416C7068613A3A71756575653A2070726F706F73616C2063 DUP2 MSTORE PUSH32 0x616E206F6E6C7920626520717565756564206966206974206973207375636365 PUSH1 0x20 DUP3 ADD MSTORE PUSH32 0x6564656400000000000000000000000000000000000000000000000000000000 PUSH1 0x40 DUP3 ADD MSTORE PUSH1 0x60 ADD SWAP3 SWAP2 POP POP JUMP JUMPDEST PUSH1 0x0 PUSH2 0x2CBA PUSH1 0x45 DUP4 PUSH2 0x3A32 JUMP JUMPDEST PUSH32 0x476F7665726E6F72416C7068613A3A657865637574653A2070726F706F73616C DUP2 MSTORE PUSH32 0x2063616E206F6E6C792062652065786563757465642069662069742069732071 PUSH1 0x20 DUP3 ADD MSTORE PUSH32 0x7565756564000000000000000000000000000000000000000000000000000000 PUSH1 0x40 DUP3 ADD MSTORE PUSH1 0x60 ADD SWAP3 SWAP2 POP POP JUMP JUMPDEST PUSH1 0x0 PUSH2 0x2D3F PUSH1 0x2 DUP4 PUSH2 0xB39 JUMP JUMPDEST PUSH32 0x1901000000000000000000000000000000000000000000000000000000000000 DUP2 MSTORE PUSH1 0x2 ADD SWAP3 SWAP2 POP POP JUMP JUMPDEST PUSH1 0x0 PUSH2 0x2D78 PUSH1 0x29 DUP4 PUSH2 0x3A32 JUMP JUMPDEST PUSH32 0x476F7665726E6F72416C7068613A3A73746174653A20696E76616C6964207072 DUP2 MSTORE PUSH32 0x6F706F73616C2069640000000000000000000000000000000000000000000000 PUSH1 0x20 DUP3 ADD MSTORE PUSH1 0x40 ADD SWAP3 SWAP2 POP POP JUMP JUMPDEST PUSH1 0x0 PUSH2 0x2DD7 PUSH1 0x2D DUP4 PUSH2 0x3A32 JUMP JUMPDEST PUSH32 0x476F7665726E6F72416C7068613A3A5F63617374566F74653A20766F74657220 DUP2 MSTORE PUSH32 0x616C726561647920766F74656400000000000000000000000000000000000000 PUSH1 0x20 DUP3 ADD MSTORE PUSH1 0x40 ADD SWAP3 SWAP2 POP POP JUMP JUMPDEST PUSH1 0x0 PUSH2 0x2E36 PUSH1 0x59 DUP4 PUSH2 0x3A32 JUMP JUMPDEST PUSH32 0x476F7665726E6F72416C7068613A3A70726F706F73653A206F6E65206C697665 DUP2 MSTORE PUSH32 0x2070726F706F73616C207065722070726F706F7365722C20666F756E6420616E PUSH1 0x20 DUP3 ADD MSTORE PUSH32 0x20616C72656164792070656E64696E672070726F706F73616C00000000000000 PUSH1 0x40 DUP3 ADD MSTORE PUSH1 0x60 ADD SWAP3 SWAP2 POP POP JUMP JUMPDEST PUSH1 0x0 PUSH2 0x2EBB PUSH1 0x28 DUP4 PUSH2 0x3A32 JUMP JUMPDEST PUSH32 0x476F7665726E6F72416C7068613A3A70726F706F73653A20746F6F206D616E79 DUP2 MSTORE PUSH32 0x20616374696F6E73000000000000000000000000000000000000000000000000 PUSH1 0x20 DUP3 ADD MSTORE PUSH1 0x40 ADD SWAP3 SWAP2 POP POP JUMP JUMPDEST PUSH1 0x0 PUSH2 0x2F1A PUSH1 0x11 DUP4 PUSH2 0x3A32 JUMP JUMPDEST PUSH32 0x6164646974696F6E206F766572666C6F77000000000000000000000000000000 DUP2 MSTORE PUSH1 0x20 ADD SWAP3 SWAP2 POP POP JUMP JUMPDEST PUSH1 0x0 PUSH2 0x2F53 PUSH1 0x43 DUP4 PUSH2 0xB39 JUMP JUMPDEST PUSH32 0x454950373132446F6D61696E28737472696E67206E616D652C75696E74323536 DUP2 MSTORE PUSH32 0x20636861696E49642C6164647265737320766572696679696E67436F6E747261 PUSH1 0x20 DUP3 ADD MSTORE PUSH32 0x6374290000000000000000000000000000000000000000000000000000000000 PUSH1 0x40 DUP3 ADD MSTORE PUSH1 0x43 ADD SWAP3 SWAP2 POP POP JUMP JUMPDEST PUSH1 0x0 PUSH2 0x2FD8 PUSH1 0x27 DUP4 PUSH2 0xB39 JUMP JUMPDEST PUSH32 0x42616C6C6F742875696E743235362070726F706F73616C49642C626F6F6C2073 DUP2 MSTORE PUSH32 0x7570706F72742900000000000000000000000000000000000000000000000000 PUSH1 0x20 DUP3 ADD MSTORE PUSH1 0x27 ADD SWAP3 SWAP2 POP POP JUMP JUMPDEST PUSH1 0x0 PUSH2 0x3037 PUSH1 0x44 DUP4 PUSH2 0x3A32 JUMP JUMPDEST PUSH32 0x476F7665726E6F72416C7068613A3A70726F706F73653A2070726F706F73616C DUP2 MSTORE PUSH32 0x2066756E6374696F6E20696E666F726D6174696F6E206172697479206D69736D PUSH1 0x20 DUP3 ADD MSTORE PUSH32 0x6174636800000000000000000000000000000000000000000000000000000000 PUSH1 0x40 DUP3 ADD MSTORE PUSH1 0x60 ADD SWAP3 SWAP2 POP POP JUMP JUMPDEST PUSH1 0x0 PUSH2 0x30BC PUSH1 0x2F DUP4 PUSH2 0x3A32 JUMP JUMPDEST PUSH32 0x476F7665726E6F72416C7068613A3A63616E63656C3A2070726F706F73657220 DUP2 MSTORE PUSH32 0x61626F7665207468726573686F6C640000000000000000000000000000000000 PUSH1 0x20 DUP3 ADD MSTORE PUSH1 0x40 ADD SWAP3 SWAP2 POP POP JUMP JUMPDEST PUSH1 0x0 PUSH2 0x311B PUSH1 0x44 DUP4 PUSH2 0x3A32 JUMP JUMPDEST PUSH32 0x476F7665726E6F72416C7068613A3A5F71756575654F725265766572743A2070 DUP2 MSTORE PUSH32 0x726F706F73616C20616374696F6E20616C726561647920717565756564206174 PUSH1 0x20 DUP3 ADD MSTORE PUSH32 0x2065746100000000000000000000000000000000000000000000000000000000 PUSH1 0x40 DUP3 ADD MSTORE PUSH1 0x60 ADD SWAP3 SWAP2 POP POP JUMP JUMPDEST PUSH1 0x0 PUSH2 0x31A0 PUSH1 0x2C DUP4 PUSH2 0x3A32 JUMP JUMPDEST PUSH32 0x476F7665726E6F72416C7068613A3A70726F706F73653A206D7573742070726F DUP2 MSTORE PUSH32 0x7669646520616374696F6E730000000000000000000000000000000000000000 PUSH1 0x20 DUP3 ADD MSTORE PUSH1 0x40 ADD SWAP3 SWAP2 POP POP JUMP JUMPDEST PUSH1 0x0 PUSH2 0x31FF PUSH1 0x3F DUP4 PUSH2 0x3A32 JUMP JUMPDEST PUSH32 0x476F7665726E6F72416C7068613A3A70726F706F73653A2070726F706F736572 DUP2 MSTORE PUSH32 0x20766F7465732062656C6F772070726F706F73616C207468726573686F6C6400 PUSH1 0x20 DUP3 ADD MSTORE PUSH1 0x40 ADD SWAP3 SWAP2 POP POP JUMP JUMPDEST PUSH1 0x0 PUSH2 0x325E PUSH1 0x2F DUP4 PUSH2 0x3A32 JUMP JUMPDEST PUSH32 0x476F7665726E6F72416C7068613A3A63617374566F746542795369673A20696E DUP2 MSTORE PUSH32 0x76616C6964207369676E61747572650000000000000000000000000000000000 PUSH1 0x20 DUP3 ADD MSTORE PUSH1 0x40 ADD SWAP3 SWAP2 POP POP JUMP JUMPDEST PUSH1 0x0 PUSH2 0x32BD PUSH1 0x19 DUP4 PUSH2 0x3A32 JUMP JUMPDEST PUSH32 0x6D6574616461746120657865637574696F6E206661696C656400000000000000 DUP2 MSTORE PUSH1 0x20 ADD SWAP3 SWAP2 POP POP JUMP JUMPDEST PUSH1 0x0 PUSH2 0x32F6 PUSH1 0x58 DUP4 PUSH2 0x3A32 JUMP JUMPDEST PUSH32 0x476F7665726E6F72416C7068613A3A70726F706F73653A206F6E65206C697665 DUP2 MSTORE PUSH32 0x2070726F706F73616C207065722070726F706F7365722C20666F756E6420616E PUSH1 0x20 DUP3 ADD MSTORE PUSH32 0x20616C7265616479206163746976652070726F706F73616C0000000000000000 PUSH1 0x40 DUP3 ADD MSTORE PUSH1 0x60 ADD SWAP3 SWAP2 POP POP JUMP JUMPDEST PUSH1 0x0 PUSH2 0x337B PUSH1 0x36 DUP4 PUSH2 0x3A32 JUMP JUMPDEST PUSH32 0x476F7665726E6F72416C7068613A3A63616E63656C3A2063616E6E6F74206361 DUP2 MSTORE PUSH32 0x6E63656C2065786563757465642070726F706F73616C00000000000000000000 PUSH1 0x20 DUP3 ADD MSTORE PUSH1 0x40 ADD SWAP3 SWAP2 POP POP JUMP JUMPDEST PUSH1 0x0 PUSH2 0x33DA PUSH1 0x2A DUP4 PUSH2 0x3A32 JUMP JUMPDEST PUSH32 0x476F7665726E6F72416C7068613A3A5F63617374566F74653A20766F74696E67 DUP2 MSTORE PUSH32 0x20697320636C6F73656400000000000000000000000000000000000000000000 PUSH1 0x20 DUP3 ADD MSTORE PUSH1 0x40 ADD SWAP3 SWAP2 POP POP JUMP JUMPDEST PUSH1 0x0 PUSH2 0x3439 PUSH1 0x15 DUP4 PUSH2 0x3A32 JUMP JUMPDEST PUSH32 0x7375627472616374696F6E20756E646572666C6F770000000000000000000000 DUP2 MSTORE PUSH1 0x20 ADD SWAP3 SWAP2 POP POP JUMP JUMPDEST DUP1 MLOAD PUSH1 0x60 DUP4 ADD SWAP1 PUSH2 0x3476 DUP5 DUP3 PUSH2 0x2AF4 JUMP JUMPDEST POP PUSH1 0x20 DUP3 ADD MLOAD PUSH2 0x3489 PUSH1 0x20 DUP6 ADD DUP3 PUSH2 0x2AF4 JUMP JUMPDEST POP PUSH1 0x40 DUP3 ADD MLOAD PUSH2 0x349C PUSH1 0x40 DUP6 ADD DUP3 PUSH2 0x34B4 JUMP JUMPDEST POP POP POP POP JUMP JUMPDEST PUSH2 0x296F DUP2 PUSH2 0x3A77 JUMP JUMPDEST PUSH2 0x296F DUP2 PUSH2 0x3AAB JUMP JUMPDEST PUSH2 0x296F DUP2 PUSH2 0x3A7D JUMP JUMPDEST PUSH1 0x0 PUSH2 0x2642 DUP3 DUP5 DUP7 PUSH2 0x2B17 JUMP JUMPDEST PUSH1 0x0 PUSH2 0x34D5 DUP3 PUSH2 0x2D32 JUMP JUMPDEST SWAP2 POP PUSH2 0x34E1 DUP3 DUP6 PUSH2 0x2B06 JUMP JUMPDEST PUSH1 0x20 DUP3 ADD SWAP2 POP PUSH2 0x34F1 DUP3 DUP5 PUSH2 0x2B06 JUMP JUMPDEST POP PUSH1 0x20 ADD SWAP3 SWAP2 POP POP JUMP JUMPDEST PUSH1 0x0 PUSH2 0x18B7 DUP3 PUSH2 0x2F46 JUMP JUMPDEST PUSH1 0x0 PUSH2 0x18B7 DUP3 PUSH2 0x2FCB JUMP JUMPDEST PUSH1 0x40 DUP2 ADD PUSH2 0x351F DUP3 DUP6 PUSH2 0x2966 JUMP JUMPDEST PUSH2 0x1DD7 PUSH1 0x20 DUP4 ADD DUP5 PUSH2 0x2AFD JUMP JUMPDEST PUSH1 0x40 DUP2 ADD PUSH2 0x351F DUP3 DUP6 PUSH2 0x2975 JUMP JUMPDEST PUSH1 0x80 DUP2 ADD PUSH2 0x3548 DUP3 DUP8 PUSH2 0x2975 JUMP JUMPDEST PUSH2 0x3555 PUSH1 0x20 DUP4 ADD DUP7 PUSH2 0x2AFD JUMP JUMPDEST PUSH2 0x3562 PUSH1 0x40 DUP4 ADD DUP6 PUSH2 0x2AF4 JUMP JUMPDEST PUSH2 0x1530 PUSH1 0x60 DUP4 ADD DUP5 PUSH2 0x34AB JUMP JUMPDEST PUSH1 0xA0 DUP2 ADD PUSH2 0x357D DUP3 DUP9 PUSH2 0x2975 JUMP JUMPDEST PUSH2 0x358A PUSH1 0x20 DUP4 ADD DUP8 PUSH2 0x2AFD JUMP JUMPDEST DUP2 DUP2 SUB PUSH1 0x40 DUP4 ADD MSTORE PUSH2 0x359C DUP2 DUP7 PUSH2 0x2B36 JUMP JUMPDEST SWAP1 POP DUP2 DUP2 SUB PUSH1 0x60 DUP4 ADD MSTORE PUSH2 0x35B0 DUP2 DUP6 PUSH2 0x2B36 JUMP JUMPDEST SWAP1 POP PUSH2 0x35BF PUSH1 0x80 DUP4 ADD DUP5 PUSH2 0x2AFD JUMP JUMPDEST SWAP7 SWAP6 POP POP POP POP POP POP JUMP JUMPDEST PUSH1 0xA0 DUP2 ADD PUSH2 0x35D7 DUP3 DUP9 PUSH2 0x2975 JUMP JUMPDEST PUSH2 0x35E4 PUSH1 0x20 DUP4 ADD DUP8 PUSH2 0x2AFD JUMP JUMPDEST DUP2 DUP2 SUB PUSH1 0x40 DUP4 ADD MSTORE PUSH2 0x35F6 DUP2 DUP7 PUSH2 0x2B6E JUMP JUMPDEST SWAP1 POP DUP2 DUP2 SUB PUSH1 0x60 DUP4 ADD MSTORE PUSH2 0x35B0 DUP2 DUP6 PUSH2 0x2B6E JUMP JUMPDEST PUSH1 0x80 DUP1 DUP3 MSTORE DUP2 ADD PUSH2 0x361B DUP2 DUP8 PUSH2 0x297E JUMP JUMPDEST SWAP1 POP DUP2 DUP2 SUB PUSH1 0x20 DUP4 ADD MSTORE PUSH2 0x362F DUP2 DUP7 PUSH2 0x2AA6 JUMP JUMPDEST SWAP1 POP DUP2 DUP2 SUB PUSH1 0x40 DUP4 ADD MSTORE PUSH2 0x3643 DUP2 DUP6 PUSH2 0x2A45 JUMP JUMPDEST SWAP1 POP DUP2 DUP2 SUB PUSH1 0x60 DUP4 ADD MSTORE PUSH2 0x35BF DUP2 DUP5 PUSH2 0x29D7 JUMP JUMPDEST PUSH1 0x20 DUP2 ADD PUSH2 0x18B7 DUP3 DUP5 PUSH2 0x2AFD JUMP JUMPDEST PUSH1 0x80 DUP2 ADD PUSH2 0x3673 DUP3 DUP8 PUSH2 0x2AFD JUMP JUMPDEST PUSH2 0x3680 PUSH1 0x20 DUP4 ADD DUP7 PUSH2 0x2AFD JUMP JUMPDEST PUSH2 0x368D PUSH1 0x40 DUP4 ADD DUP6 PUSH2 0x2AFD JUMP JUMPDEST PUSH2 0x1530 PUSH1 0x60 DUP4 ADD DUP5 PUSH2 0x2975 JUMP JUMPDEST PUSH1 0x60 DUP2 ADD PUSH2 0x36A8 DUP3 DUP7 PUSH2 0x2AFD JUMP JUMPDEST PUSH2 0x36B5 PUSH1 0x20 DUP4 ADD DUP6 PUSH2 0x2AFD JUMP JUMPDEST PUSH2 0x2642 PUSH1 0x40 DUP4 ADD DUP5 PUSH2 0x2AF4 JUMP JUMPDEST PUSH1 0x80 DUP2 ADD PUSH2 0x36D0 DUP3 DUP8 PUSH2 0x2AFD JUMP JUMPDEST PUSH2 0x36DD PUSH1 0x20 DUP4 ADD DUP7 PUSH2 0x34A2 JUMP JUMPDEST PUSH2 0x36EA PUSH1 0x40 DUP4 ADD DUP6 PUSH2 0x2AFD JUMP JUMPDEST PUSH2 0x1530 PUSH1 0x60 DUP4 ADD DUP5 PUSH2 0x2AFD JUMP JUMPDEST PUSH1 0x20 DUP2 ADD PUSH2 0x18B7 DUP3 DUP5 PUSH2 0x2C16 JUMP JUMPDEST PUSH1 0x20 DUP2 ADD PUSH2 0x18B7 DUP3 DUP5 PUSH2 0x2C1F JUMP JUMPDEST PUSH1 0x20 DUP1 DUP3 MSTORE DUP2 ADD PUSH2 0x1DD7 DUP2 DUP5 PUSH2 0x2B36 JUMP JUMPDEST PUSH1 0x20 DUP1 DUP3 MSTORE DUP2 ADD PUSH2 0x18B7 DUP2 PUSH2 0x2C28 JUMP JUMPDEST PUSH1 0x20 DUP1 DUP3 MSTORE DUP2 ADD PUSH2 0x18B7 DUP2 PUSH2 0x2CAD JUMP JUMPDEST PUSH1 0x20 DUP1 DUP3 MSTORE DUP2 ADD PUSH2 0x18B7 DUP2 PUSH2 0x2D6B JUMP JUMPDEST PUSH1 0x20 DUP1 DUP3 MSTORE DUP2 ADD PUSH2 0x18B7 DUP2 PUSH2 0x2DCA JUMP JUMPDEST PUSH1 0x20 DUP1 DUP3 MSTORE DUP2 ADD PUSH2 0x18B7 DUP2 PUSH2 0x2E29 JUMP JUMPDEST PUSH1 0x20 DUP1 DUP3 MSTORE DUP2 ADD PUSH2 0x18B7 DUP2 PUSH2 0x2EAE JUMP JUMPDEST PUSH1 0x20 DUP1 DUP3 MSTORE DUP2 ADD PUSH2 0x18B7 DUP2 PUSH2 0x2F0D JUMP JUMPDEST PUSH1 0x20 DUP1 DUP3 MSTORE DUP2 ADD PUSH2 0x18B7 DUP2 PUSH2 0x302A JUMP JUMPDEST PUSH1 0x20 DUP1 DUP3 MSTORE DUP2 ADD PUSH2 0x18B7 DUP2 PUSH2 0x30AF JUMP JUMPDEST PUSH1 0x20 DUP1 DUP3 MSTORE DUP2 ADD PUSH2 0x18B7 DUP2 PUSH2 0x310E JUMP JUMPDEST PUSH1 0x20 DUP1 DUP3 MSTORE DUP2 ADD PUSH2 0x18B7 DUP2 PUSH2 0x3193 JUMP JUMPDEST PUSH1 0x20 DUP1 DUP3 MSTORE DUP2 ADD PUSH2 0x18B7 DUP2 PUSH2 0x31F2 JUMP JUMPDEST PUSH1 0x20 DUP1 DUP3 MSTORE DUP2 ADD PUSH2 0x18B7 DUP2 PUSH2 0x3251 JUMP JUMPDEST PUSH1 0x20 DUP1 DUP3 MSTORE DUP2 ADD PUSH2 0x18B7 DUP2 PUSH2 0x32B0 JUMP JUMPDEST PUSH1 0x20 DUP1 DUP3 MSTORE DUP2 ADD PUSH2 0x18B7 DUP2 PUSH2 0x32E9 JUMP JUMPDEST PUSH1 0x20 DUP1 DUP3 MSTORE DUP2 ADD PUSH2 0x18B7 DUP2 PUSH2 0x336E JUMP JUMPDEST PUSH1 0x20 DUP1 DUP3 MSTORE DUP2 ADD PUSH2 0x18B7 DUP2 PUSH2 0x33CD JUMP JUMPDEST PUSH1 0x20 DUP1 DUP3 MSTORE DUP2 ADD PUSH2 0x18B7 DUP2 PUSH2 0x342C JUMP JUMPDEST PUSH1 0x60 DUP2 ADD PUSH2 0x18B7 DUP3 DUP5 PUSH2 0x3465 JUMP JUMPDEST PUSH2 0x120 DUP2 ADD PUSH2 0x3861 DUP3 DUP13 PUSH2 0x2AFD JUMP JUMPDEST PUSH2 0x386E PUSH1 0x20 DUP4 ADD DUP12 PUSH2 0x2966 JUMP JUMPDEST DUP2 DUP2 SUB PUSH1 0x40 DUP4 ADD MSTORE PUSH2 0x3880 DUP2 DUP11 PUSH2 0x297E JUMP JUMPDEST SWAP1 POP DUP2 DUP2 SUB PUSH1 0x60 DUP4 ADD MSTORE PUSH2 0x3894 DUP2 DUP10 PUSH2 0x2AA6 JUMP JUMPDEST SWAP1 POP DUP2 DUP2 SUB PUSH1 0x80 DUP4 ADD MSTORE PUSH2 0x38A8 DUP2 DUP9 PUSH2 0x2A45 JUMP JUMPDEST SWAP1 POP DUP2 DUP2 SUB PUSH1 0xA0 DUP4 ADD MSTORE PUSH2 0x38BC DUP2 DUP8 PUSH2 0x29D7 JUMP JUMPDEST SWAP1 POP PUSH2 0x38CB PUSH1 0xC0 DUP4 ADD DUP7 PUSH2 0x2AFD JUMP JUMPDEST PUSH2 0x38D8 PUSH1 0xE0 DUP4 ADD DUP6 PUSH2 0x2AFD JUMP JUMPDEST DUP2 DUP2 SUB PUSH2 0x100 DUP4 ADD MSTORE PUSH2 0x38EB DUP2 DUP5 PUSH2 0x2B36 JUMP JUMPDEST SWAP12 SWAP11 POP POP POP POP POP POP POP POP POP POP POP JUMP JUMPDEST PUSH2 0x120 DUP2 ADD PUSH2 0x3909 DUP3 DUP13 PUSH2 0x2AFD JUMP JUMPDEST PUSH2 0x3916 PUSH1 0x20 DUP4 ADD DUP12 PUSH2 0x2975 JUMP JUMPDEST PUSH2 0x3923 PUSH1 0x40 DUP4 ADD DUP11 PUSH2 0x2AFD JUMP JUMPDEST PUSH2 0x3930 PUSH1 0x60 DUP4 ADD DUP10 PUSH2 0x2AFD JUMP JUMPDEST PUSH2 0x393D PUSH1 0x80 DUP4 ADD DUP9 PUSH2 0x2AFD JUMP JUMPDEST PUSH2 0x394A PUSH1 0xA0 DUP4 ADD DUP8 PUSH2 0x2AFD JUMP JUMPDEST PUSH2 0x3957 PUSH1 0xC0 DUP4 ADD DUP7 PUSH2 0x2AFD JUMP JUMPDEST PUSH2 0x3964 PUSH1 0xE0 DUP4 ADD DUP6 PUSH2 0x2AF4 JUMP JUMPDEST PUSH2 0x3972 PUSH2 0x100 DUP4 ADD DUP5 PUSH2 0x2AF4 JUMP JUMPDEST SWAP11 SWAP10 POP POP POP POP POP POP POP POP POP POP JUMP JUMPDEST PUSH1 0x40 DUP2 ADD PUSH2 0x351F DUP3 DUP6 PUSH2 0x2AFD JUMP JUMPDEST PUSH1 0x40 MLOAD DUP2 DUP2 ADD PUSH8 0xFFFFFFFFFFFFFFFF DUP2 GT DUP3 DUP3 LT OR ISZERO PUSH2 0x39AD JUMPI PUSH1 0x0 DUP1 REVERT JUMPDEST PUSH1 0x40 MSTORE SWAP2 SWAP1 POP JUMP JUMPDEST PUSH1 0x0 PUSH8 0xFFFFFFFFFFFFFFFF DUP3 GT ISZERO PUSH2 0x39CC JUMPI PUSH1 0x0 DUP1 REVERT JUMPDEST POP PUSH1 0x20 SWAP1 DUP2 MUL ADD SWAP1 JUMP JUMPDEST PUSH1 0x0 PUSH8 0xFFFFFFFFFFFFFFFF DUP3 GT ISZERO PUSH2 0x39ED JUMPI PUSH1 0x0 DUP1 REVERT JUMPDEST POP PUSH1 0x20 PUSH1 0x1F SWAP2 SWAP1 SWAP2 ADD PUSH32 0xFFFFFFFFFFFFFFFFFFFFFFFFFFFFFFFFFFFFFFFFFFFFFFFFFFFFFFFFFFFFFFE0 AND ADD SWAP1 JUMP JUMPDEST PUSH1 0x20 ADD SWAP1 JUMP JUMPDEST PUSH1 0x0 SWAP1 DUP2 MSTORE PUSH1 0x20 SWAP1 KECCAK256 SWAP1 JUMP JUMPDEST MLOAD SWAP1 JUMP JUMPDEST SWAP1 DUP2 MSTORE PUSH1 0x20 ADD SWAP1 JUMP JUMPDEST PUSH1 0x0 PUSH2 0x18B7 DUP3 PUSH2 0x3A55 JUMP JUMPDEST ISZERO ISZERO SWAP1 JUMP JUMPDEST DUP1 PUSH2 0xB39 DUP2 PUSH2 0x3B16 JUMP JUMPDEST PUSH20 0xFFFFFFFFFFFFFFFFFFFFFFFFFFFFFFFFFFFFFFFF AND SWAP1 JUMP JUMPDEST PUSH4 0xFFFFFFFF AND SWAP1 JUMP JUMPDEST PUSH1 0xFF AND SWAP1 JUMP JUMPDEST PUSH12 0xFFFFFFFFFFFFFFFFFFFFFFFF AND SWAP1 JUMP JUMPDEST PUSH1 0x0 PUSH2 0x18B7 DUP3 JUMPDEST PUSH1 0x0 PUSH2 0x18B7 DUP3 PUSH2 0x3A3B JUMP JUMPDEST PUSH1 0x0 PUSH2 0x18B7 DUP3 PUSH2 0x3A4B JUMP JUMPDEST PUSH1 0x0 PUSH2 0x18B7 DUP3 PUSH2 0x3A7D JUMP JUMPDEST DUP3 DUP2 DUP4 CALLDATACOPY POP PUSH1 0x0 SWAP2 ADD MSTORE JUMP JUMPDEST PUSH1 0x0 JUMPDEST DUP4 DUP2 LT ISZERO PUSH2 0x3ADD JUMPI DUP2 DUP2 ADD MLOAD DUP4 DUP3 ADD MSTORE PUSH1 0x20 ADD PUSH2 0x3AC5 JUMP JUMPDEST DUP4 DUP2 GT ISZERO PUSH2 0x349C JUMPI POP POP PUSH1 0x0 SWAP2 ADD MSTORE JUMP JUMPDEST PUSH1 0x1F ADD PUSH32 0xFFFFFFFFFFFFFFFFFFFFFFFFFFFFFFFFFFFFFFFFFFFFFFFFFFFFFFFFFFFFFFE0 AND SWAP1 JUMP JUMPDEST PUSH1 0x8 DUP2 LT PUSH2 0x2342 JUMPI INVALID JUMPDEST PUSH2 0x3B29 DUP2 PUSH2 0x3A3B JUMP JUMPDEST DUP2 EQ PUSH2 0x2342 JUMPI PUSH1 0x0 DUP1 REVERT JUMPDEST PUSH2 0x3B29 DUP2 PUSH2 0x3A46 JUMP JUMPDEST PUSH2 0x3B29 DUP2 PUSH2 0x4AD JUMP JUMPDEST PUSH2 0x3B29 DUP2 PUSH2 0x3A6E JUMP JUMPDEST PUSH2 0x3B29 DUP2 PUSH2 0x3A77 JUMP JUMPDEST PUSH2 0x3B29 DUP2 PUSH2 0x3A7D JUMP INVALID LOG3 PUSH6 0x627A7A723158 KECCAK256 0xE7 SWAP2 SGT 0x4C PUSH27 0xBF12082491C9D9DC58D92FA7BA9A79F7FD207108F224AAAE838C29 PUSH13 0x6578706572696D656E74616CF5 PUSH5 0x736F6C6343 STOP SDIV LT STOP BLOCKHASH "},"gasEstimates":{"creation":{"codeDepositCost":"3053600","executionCost":"infinite","totalCost":"infinite"},"external":{"BALLOT_TYPEHASH()":"infinite","DOMAIN_TYPEHASH()":"infinite","cancel(uint256)":"infinite","castVote(address,uint256,bool)":"infinite","castVoteBySig(uint256,bool,uint8,bytes32,bytes32)":"infinite","execute(uint256)":"infinite","getActions(uint256)":"infinite","getReceipt(uint256,address)":"infinite","latestProposalIds(address)":"infinite","name()":"infinite","onMessageReceived(address,uint32,bytes)":"infinite","proposalCount()":"1188","proposalMaxOperations()":"389","proposalThreshold()":"344","proposals(uint256)":"infinite","propose(address[],uint256[],string[],bytes[],string)":"infinite","queue(uint256)":"infinite","quorumVotes()":"389","state(uint256)":"infinite","timelock()":"infinite","uni()":"infinite","votingDelay()":"366","votingPeriod()":"infinite"},"internal":{"_castVote(address,uint256,bool)":"infinite","_queueOrRevert(address,uint256,string memory,bytes memory,uint256)":"infinite","add256(uint256,uint256)":"infinite","getChainId()":"14","sub256(uint256,uint256)":"infinite"}},"methodIdentifiers":{"BALLOT_TYPEHASH()":"deaaa7cc","DOMAIN_TYPEHASH()":"20606b70","cancel(uint256)":"40e58ee5","castVote(address,uint256,bool)":"12d320c5","castVoteBySig(uint256,bool,uint8,bytes32,bytes32)":"4634c61f","execute(uint256)":"fe0d94c1","getActions(uint256)":"328dd982","getReceipt(uint256,address)":"e23a9a52","latestProposalIds(address)":"17977c61","name()":"06fdde03","onMessageReceived(address,uint32,bytes)":"1806b5f2","proposalCount()":"da35c664","proposalMaxOperations()":"7bdbe4d0","proposalThreshold()":"b58131b0","proposals(uint256)":"013cf08b","propose(address[],uint256[],string[],bytes[],string)":"da95691a","queue(uint256)":"ddf0b009","quorumVotes()":"24bc1a64","state(uint256)":"3e4f49e6","timelock()":"d33219b4","uni()":"edc9af95","votingDelay()":"3932abb1","votingPeriod()":"02a251a3"}},"storageLayout":{"storage":[{"astId":47,"contract":"contracts/GovernorAlpha.sol:GovernorAlpha","label":"timelock","offset":0,"slot":"0","type":"t_contract(TimelockInterface)1197"},{"astId":49,"contract":"contracts/GovernorAlpha.sol:GovernorAlpha","label":"uni","offset":0,"slot":"1","type":"t_contract(UniInterface)1207"},{"astId":51,"contract":"contracts/GovernorAlpha.sol:GovernorAlpha","label":"proposalCount","offset":0,"slot":"2","type":"t_uint256"},{"astId":106,"contract":"contracts/GovernorAlpha.sol:GovernorAlpha","label":"proposals","offset":0,"slot":"3","type":"t_mapping(t_uint256,t_struct(Proposal)86_storage)"},{"astId":110,"contract":"contracts/GovernorAlpha.sol:GovernorAlpha","label":"latestProposalIds","offset":0,"slot":"4","type":"t_mapping(t_address,t_uint256)"},{"astId":170,"contract":"contracts/GovernorAlpha.sol:GovernorAlpha","label":"l2Contract","offset":0,"slot":"5","type":"t_address"},{"astId":172,"contract":"contracts/GovernorAlpha.sol:GovernorAlpha","label":"l1Bridge","offset":0,"slot":"6","type":"t_address"},{"astId":174,"contract":"contracts/GovernorAlpha.sol:GovernorAlpha","label":"caller","offset":0,"slot":"7","type":"t_address"}],"types":{"t_address":{"encoding":"inplace","label":"address","numberOfBytes":"20"},"t_array(t_address)dyn_storage":{"base":"t_address","encoding":"dynamic_array","label":"address[]","numberOfBytes":"32"},"t_array(t_bytes_storage)dyn_storage":{"base":"t_bytes_storage","encoding":"dynamic_array","label":"bytes[]","numberOfBytes":"32"},"t_array(t_string_storage)dyn_storage":{"base":"t_string_storage","encoding":"dynamic_array","label":"string[]","numberOfBytes":"32"},"t_array(t_uint256)dyn_storage":{"base":"t_uint256","encoding":"dynamic_array","label":"uint256[]","numberOfBytes":"32"},"t_bool":{"encoding":"inplace","label":"bool","numberOfBytes":"1"},"t_bytes_storage":{"encoding":"bytes","label":"bytes","numberOfBytes":"32"},"t_contract(TimelockInterface)1197":{"encoding":"inplace","label":"contract TimelockInterface","numberOfBytes":"20"},"t_contract(UniInterface)1207":{"encoding":"inplace","label":"contract UniInterface","numberOfBytes":"20"},"t_mapping(t_address,t_struct(Receipt)93_storage)":{"encoding":"mapping","key":"t_address","label":"mapping(address => struct GovernorAlpha.Receipt)","numberOfBytes":"32","value":"t_struct(Receipt)93_storage"},"t_mapping(t_address,t_uint256)":{"encoding":"mapping","key":"t_address","label":"mapping(address => uint256)","numberOfBytes":"32","value":"t_uint256"},"t_mapping(t_uint256,t_struct(Proposal)86_storage)":{"encoding":"mapping","key":"t_uint256","label":"mapping(uint256 => struct GovernorAlpha.Proposal)","numberOfBytes":"32","value":"t_struct(Proposal)86_storage"},"t_string_storage":{"encoding":"bytes","label":"string","numberOfBytes":"32"},"t_struct(Proposal)86_storage":{"encoding":"inplace","label":"struct GovernorAlpha.Proposal","members":[{"astId":53,"contract":"contracts/GovernorAlpha.sol:GovernorAlpha","label":"id","offset":0,"slot":"0","type":"t_uint256"},{"astId":55,"contract":"contracts/GovernorAlpha.sol:GovernorAlpha","label":"proposer","offset":0,"slot":"1","type":"t_address"},{"astId":57,"contract":"contracts/GovernorAlpha.sol:GovernorAlpha","label":"eta","offset":0,"slot":"2","type":"t_uint256"},{"astId":60,"contract":"contracts/GovernorAlpha.sol:GovernorAlpha","label":"targets","offset":0,"slot":"3","type":"t_array(t_address)dyn_storage"},{"astId":63,"contract":"contracts/GovernorAlpha.sol:GovernorAlpha","label":"values","offset":0,"slot":"4","type":"t_array(t_uint256)dyn_storage"},{"astId":66,"contract":"contracts/GovernorAlpha.sol:GovernorAlpha","label":"signatures","offset":0,"slot":"5","type":"t_array(t_string_storage)dyn_storage"},{"astId":69,"contract":"contracts/GovernorAlpha.sol:GovernorAlpha","label":"calldatas","offset":0,"slot":"6","type":"t_array(t_bytes_storage)dyn_storage"},{"astId":71,"contract":"contracts/GovernorAlpha.sol:GovernorAlpha","label":"startBlock","offset":0,"slot":"7","type":"t_uint256"},{"astId":73,"contract":"contracts/GovernorAlpha.sol:GovernorAlpha","label":"endBlock","offset":0,"slot":"8","type":"t_uint256"},{"astId":75,"contract":"contracts/GovernorAlpha.sol:GovernorAlpha","label":"forVotes","offset":0,"slot":"9","type":"t_uint256"},{"astId":77,"contract":"contracts/GovernorAlpha.sol:GovernorAlpha","label":"againstVotes","offset":0,"slot":"10","type":"t_uint256"},{"astId":79,"contract":"contracts/GovernorAlpha.sol:GovernorAlpha","label":"canceled","offset":0,"slot":"11","type":"t_bool"},{"astId":81,"contract":"contracts/GovernorAlpha.sol:GovernorAlpha","label":"executed","offset":1,"slot":"11","type":"t_bool"},{"astId":85,"contract":"contracts/GovernorAlpha.sol:GovernorAlpha","label":"receipts","offset":0,"slot":"12","type":"t_mapping(t_address,t_struct(Receipt)93_storage)"}],"numberOfBytes":"416"},"t_struct(Receipt)93_storage":{"encoding":"inplace","label":"struct GovernorAlpha.Receipt","members":[{"astId":88,"contract":"contracts/GovernorAlpha.sol:GovernorAlpha","label":"hasVoted","offset":0,"slot":"0","type":"t_bool"},{"astId":90,"contract":"contracts/GovernorAlpha.sol:GovernorAlpha","label":"support","offset":1,"slot":"0","type":"t_bool"},{"astId":92,"contract":"contracts/GovernorAlpha.sol:GovernorAlpha","label":"votes","offset":2,"slot":"0","type":"t_uint96"}],"numberOfBytes":"32"},"t_uint256":{"encoding":"inplace","label":"uint256","numberOfBytes":"32"},"t_uint96":{"encoding":"inplace","label":"uint96","numberOfBytes":"12"}}},"userdoc":{"methods":{"proposalMaxOperations()":{"notice":"The maximum number of actions that can be included in a proposal"},"proposalThreshold()":{"notice":"The number of votes required in order for a voter to become a proposer"},"quorumVotes()":{"notice":"The number of votes in support of a proposal required in order for a quorum to be reached and for a vote to succeed"},"votingDelay()":{"notice":"The delay before voting on a proposal may take place, once proposed"},"votingPeriod()":{"notice":"The duration of voting on a proposal, in blocks"}}}}}}